:100000000C94AE030C94EE2C0C94CB030C94CB0309
:100010000C94CB030C94CB030C94CB030C94CB0328
:100020000C94CB030C94CB030C942B2B0C94032C2F
:100030000C94E02A0C94CB030C94CB030C94CB03CC
:100040000C94CB030C94CB030C94CB030C94CB03F8
:100050000C94CB030C94072B0C94CB030C94CB0384
:100060000C94CB030C94CB030C94CB030C94CB03D8
:100070000C94CB030C94CB030C94CB030C94CB03C8
:100080000C94CB030C94CB030C94CB030C94CB03B8
:100090000C94CB030C94CB030C94CB030C94CB03A8
:1000A0000C94CB030C94CB030C94CB0305010902F5
:1000B000A10185020901A1000509190129081500FE
:1000C0002501950875018102050109300931158165
:1000D000257F95027508810609381581257F9501D0
:1000E00075088106050C0A38021581257F95017572
:1000F000088106C0C005010980A101850319012AF4
:10010000B700150126B700950175108100C0050CD8
:100110000901A101850419012AA002150126A002E6
:10012000950175108100C00660FF0961A101096297
:10013000150026FF00952075088102096315002629
:10014000FF00952075089102C005010906A101056F
:100150000719E029E7150025019508750181029529
:1001600001750881010507190029FF150026FF0008
:100170009506750881000508190129051500250156
:10018000950575019102950175039101C009025B06
:1001900000030100A0FA09040000010301010009A5
:1001A0002111010001224400070581030800010913
:1001B00004010002030000000921110100012222B4
:1001C0000007058203200001070503032000010941
:1001D0000402000103000000092111010001227B3B
:1001E000000705840320000112010002000000083E
:1001F000490355000100010200013203440061007F
:100200006300740079006C002D004D0061006E00E9
:10021000750066006F0072006D0020002800350038
:10022000780037005F0043004300290000001E03F0
:100230006D00790062006500730074006600720052
:10024000690065006E0064006D0065000000040335
:1002500009042E001E001F00200021002200615210
:100260000000290014001A000800150017007B0088
:1002700000002B0004001600070009000A00B2006D
:10028000000039001D001B00060019000500E000F9
:100290004A006152E00050004F00E2000000000000
:1002A0004D00000000000000000000004C002A008B
:1002B000E1000000625223002400250026002700F0
:1002C0002D0000007C001C0018000C001200130020
:1002D000310000007D000B000D000E000F00330008
:1002E00034004B00E70011001000360037003800E2
:1002F000E5004E00000000002900520051002F00D0
:100300003000E5002C002800000000000000000084
:10031000000001003A003B003C003D003E003F0071
:100320000000010001000100520001000100010075
:10033000000001000100500051004F000100007C4E
:1003400000000100010001000100010001000100A6
:100350000100AD00AE00AC00AB00010000000000E9
:10036000010000000000000000000000010001008A
:1003700001000000400041004200430044004500ED
:100380000100000001000100010001000100010066
:100390000100000001000100010001000100010056
:1003A00001004C00010001000100010001000100FA
:1003B0000100010000000000010001000100010037
:1003C0000100010001000100000000000000000029
:1003D0000000010001000100010001000100010016
:1003E0000000010001000100010001000100010006
:1003F00000000100010001000100010001000100F6
:1004000000000100010001000100010001000100E5
:1004100001000100010001000100010000000000D6
:1004200001000000000000000000000001000100C9
:1004300001000000010001005300010056005700B8
:1004400001000000010001005F0060006100010088
:1004500001000000010001005C005D005E0055002D
:10046000010001005800010059005A005B005400CF
:1004700001000100000000000100620063000100B3
:100480000100010001000100000000000000000068
:1004900000002223252628292A2C2D2F30323335FF
:1004A00036383A3B3D3E4042434547494A4C4E5020
:1004B00051535557595A5C5E6062646668696B6D4A
:1004C0006F71737577797B7D7F81838587898A8C4E
:1004D0008E90929496989A9C9E9FA1A3A5A7A8AA55
:1004E000ACAEAFB1B3B4B6B8B9BBBCBEBFC1C2C38A
:1004F000C5C6C7C9CACBCCCDCED0D1D2D2D3D4D524
:10050000D6D7D7D8D9D9DADADBDBDBDCDCDCDCDC4C
:10051000DDDDDDDDDCDCDCDCDCDBDBDBDADAD9D924
:10052000D8D7D7D6D5D4D3D2D2D1D0CECDCCCBCAB2
:10053000C9C7C6C5C3C2C1BFBEBCBBB9B8B6B4B3D8
:10054000B1AFAEACAAA8A7A5A3A19F9E9C9A98966E
:100550009492908E8C8A89878583817F7D7B797741
:100560007573716F6D6B6968666462605E5C5A5921
:1005700057555351504E4C4A4947454342403E3DE2
:100580003B3A3836353332302F2D2C2A2928262570
:100590002322FFAA7F554000010101010101010151
:1005A0000102020202020202020203030303030326
:1005B00003030404040404040405050505050606F4
:1005C00006060607070707070808080809090909B2
:1005D0000A0A0A0B0B0B0C0C0C0D0D0D0E0E0E0F58
:1005E0000F0F1010111111121213131414151516E8
:1005F000161717181819191A1A1B1B1C1D1D1E1E59
:100600001F202021222223242425262627282929A9
:100610002A2B2C2D2D2E2F303132323334353637D4
:1006200038393A3B3C3D3E3F4041424344454647D2
:1006300048494A4C4D4E4F50515354555658595AAB
:100640005B5D5E5F616264656668696B6C6D6F704F
:1006500072737577787A7B7D7E8082838587888ABE
:100660008C8E8F91939596989A9C9EA0A2A3A5A7F5
:10067000A9ABADAFB1B3B5B7BABCBEC0C2C4C6C9F1
:10068000CBCDCFD1D4D6D8DBDDDFE2E4E7E9EBEEAA
:10069000F0F3F5F8FAFDFF1E0F0500047F3F1F641D
:1006A0003214643214783C1E1E140A050000000047
:1006B000000000000000000000000000000000003A
:1006C000000000000000000000000000000000002A
:1006D0007E0F00D4FFFFFFC700000078000000007D
:1006E000000000002A2B280000000000000000008D
:1006F0000000000000000029000000002C1E342033
:10070000212224342627252E362D3738271E1F2058
:100710002122232425263333362E37381F0405069D
:100720000708090A0B0C0D0E0F10111213141516E1
:100730001718191A1B1C1D2F3130232D35040506DF
:100740000708090A0B0C0D0E0F10111213141516C1
:100750001718191A1B1C1D2F3130354C11241FBEC0
:10076000CFEFDAE0DEBFCDBF25E0A0EDB1E001C004
:100770001D92AF31B207E1F711E0A0E0B1E0E0E691
:10078000F1E602C005900D92A03DB107D9F70E9495
:10079000D2240C940E300C9400008093D804089559
:1007A0008093D904089521E030E001C0220F8A959A
:1007B000EAF78091D904822B0E94D003089521E0AA
:1007C00030E0A90102C0440F551F8A95E2F7CA0123
:1007D00080959091D90489230E94D00308959C307C
:1007E00088F5883078F548E0949F90011124280F0F
:1007F000311D877041E001C0440F8A95EAF783E01C
:10080000369527958A95E1F7F901EE0FFF1FE20F64
:10081000F31FEA56FB4F80E090E070E05191DF015A
:1008200011979B01082E02C0369527950A94E2F78E
:10083000217021952527242325272C930196833089
:10084000910561F708959C3078F5883068F548E0A7
:10085000949F90011124280F311D982F977083E0E9
:10086000369527958A95E1F7F901EE0FFF1FE20F04
:10087000F31FEA56FB4F40E050E080E0219130E06A
:10088000092E02C0369527950A94E2F72170332786
:10089000042E01C0220F0A94EAF7822B4F5F5F4FAC
:1008A0004330510559F7089580E008959091D90497
:1008B00021E030E0F90101C0EE0F8A95EAF7D90195
:1008C00002C0AA0FBB1F6A95E2F7EA2B01C0220FF4
:1008D0004A95EAF7892F8E23E81305C0892F822BCA
:1008E0000E94D00308952095822F8923F9CF80910B
:1008F000DF049091DE04981301C008958F5F877024
:10090000FACF9091DA04809589238093DA04282F16
:10091000277021110DC0891759F09091DC0492FFC6
:1009200007C08695869586950E94DF031092DA04AB
:100930000895982F90958091D50489238093D504AC
:100940000895803E9105D1F1C8F48133910509F4F1
:100950007FC048F48932910509F46FC08A3291054D
:1009600009F47DC0089589339105E1F0823891053D
:10097000C9F08533910509F45BC00895843E910563
:10098000D1F148F4823E910531F1833E910541F168
:1009900081EE90E00895863E9105C1F1873E910574
:1009A000E1F108952091DB042370211165C02091AD
:1009B000DC0423FF14C089E290E008952091DB0459
:1009C00020FD43C03091DC0430FF09C024FF4EC03D
:1009D00080E090E008952091DB0422FDF7CF089598
:1009E0002091DB0422FD45C03091DC0430FD44C081
:1009F00024FFF5CFEDCF2091DC0421FFF0CF8091D3
:100A0000DB0484FDE5CF87EE90E008952091DB04C0
:100A100023FFE5CF24FDDCCFF6CF2091DB0423FDBF
:100A20002EC03091DC0431FFE3CF84EE90E00895D6
:100A30002091DB0425FFD3CFBECF2091DB0425FD21
:100A400021C02091DC0423FFCACF89E390E0089500
:100A50002091DB0426FFC3CF8AE290E00895209125
:100A6000DB0426FFBCCF81E390E0089583EE90E0A5
:100A7000089582EE90E0089580EE90E0089586EE6D
:100A800090E0089585E390E0AACF9091DB0492FF77
:100A900010C041E0282F2471243009F040E031E0FB
:100AA000282F2871283009F030E0431711F02CE08E
:100AB000822793FF10C041E0282F2471243109F0D0
:100AC00040E031E0282F2871283109F030E0431749
:100AD00011F02CE082273091DC0430FF10C051E08F
:100AE000282F2171213009F050E041E0282F287192
:100AF000283009F040E0541711F029E0822731FF37
:100B000010C041E0282F2171213109F040E031E08F
:100B1000282F2871283109F030E0431711F029E01F
:100B2000822794FD877E08951F93CF93DF930E94C1
:100B3000A104EC01811522E5920708F053C081154C
:100B400040E5940708F0DDC0803E9105F8F48D3C47
:100B5000910508F0AEC0883A910580F4853A910578
:100B600008F099C08130910521F00497813A9105F0
:100B700050F4CE01DF91CF911F910895885A9109C9
:100B80004B9708F48BC0C0E0D0E0F3CF811550E460
:100B90009507F8F4C11580E2D80708F0CBC0C83E2D
:100BA000D10538F3CE019A9581159F4160F78D2FBD
:100BB0000E944505182FCE0199270E94A104212FDC
:100BC00030E0322F2227E901CC27DF71C82BD92B47
:100BD000D0CF99270E94A104CC27DF70C82BD92B36
:100BE000D06AC7CF803842E59407C8F5803652E511
:100BF000950708F067C0C03482E5D807B0F08C2FA5
:100C000086958695877020E2829FC0011124C3706B
:100C100021E030E0A90102C0440F551FCA95E2F758
:100C2000EA01C82BD92BDC68A4CFC03252E5D50726
:100C300008F041C08C2F8695869520E2829FC001E6
:100C40001124C37021E030E0A90102C0440F551FF8
:100C5000CA95E2F7EA01C82BD92BDD688ACF803C20
:100C600052E5950760F48F71C03AD24508F03FC055
:100C700090E0982F8827EC01C46FD06A7ACF805C0F
:100C80009245809708F07FCFDC2FCC27CC27DF71EF
:100C9000C06FD06A6ECFA497D0646BCFC85AD0E033
:100CA000CC0FDD1FC656DE4F0990D881C02DD4640D
:100CB00060CFD0655ECFCF71D0E0DC2FCC27C16F85
:100CC000D06A57CF86958695877020E2829FC001B3
:100CD0001124C37021E030E0A90102C0440F551F68
:100CE000CA95E2F7EA01C82BD92BDA6842CF0E94F5
:100CF0004505C82FD0E0DC2FCC27CC27DF71D06290
:100D000038CF8F710E94450565E0D695C7956A95E5
:100D1000E1F7CF70D0E0DC2FCC27282F30E084FF24
:100D200005C054E0220F331F5A95E1F7C22BD32B95
:100D3000D0691FCF8D2F8F710E944505182FCE01CE
:100D400099270E94A104212F30E0322F2227222749
:100D50003F71282B392BE901D2CF80E00895F89418
:100D6000E82FE295EF70F0E041A18F7021E030E0D4
:100D7000B90102C0660F771F8A95E2F7CB01962F63
:100D80009095942391A392A1892B82A3789408959E
:100D90000895A0E0B0E0EFECF6E00C94112EE9012C
:100DA000E42FF0E0E956FA4F61110BC0E4919E2F59
:100DB0008E2F8983E8839A83CDB7DEB7EAE00C945F
:100DC0002D2E282F30E0062F10E0F491EF2F86E033
:100DD000829F6001839FD00C1124EE24EA94F12CB1
:100DE000C601B7010E945A2E220F331F45E5469FC8
:100DF000C001479F900D1124281B390B822F880FAB
:100E0000280FC701801B910BF89FA001F99F500D7F
:100E10001124952F209F5001219FB00C1124AB2C41
:100E2000BB24D701AA19BB095D01FA9DD001FB9D26
:100E3000B00D11248B2F5701A21AB1089501209FE4
:100E40005001219FB00C309FB00C1124AB2CBB245F
:100E5000EA18FB08FE9D9001FF9D300D11246330C0
:100E60007105C9F01CEFC11613E0D10650F46130D2
:100E7000710509F49ECF6230710589F08E2FE32F42
:100E800098CF6430710571F066307105B9F3E52FC4
:100E90009B2F8F2F8ECFEB2F852F9F2F8ACF852FC4
:100EA000932F87CF832FE52FF8CF8091CD04843007
:100EB00028F4837084608093CD0408958C3AE8F31D
:100EC0008370886AF8CF609114018091CD0480FF0F
:100ED0000EC070E02091130130E0C901880F991F06
:100EE000820F931F835B9C4F0E94540E0895809144
:100EF000150190911601282F30E0F901EE0FFF1F28
:100F0000E20FF31FE35BFC4F891718F71182108281
:100F100012828F5F3396F8CF9091CD0490FF11C06D
:100F20009091150150911601292F30E0F901EE0F33
:100F3000FF1FE20FF31FE35BFC4F951718F00E94B1
:100F4000630708958183608342839F5F3396F5CF63
:100F5000A3E0B0E0EEEAF7E00C94192E9091CD04F6
:100F600090FF0AC09E012F5F3F4F0E94C9064B8130
:100F700069818A810E948C072396E2E00C94352EC9
:100F8000CF93DF93EC01EDECF4E0438162818C813F
:100F90000E94A8078C818F5F8C83DF91CF91089589
:100FA000EAECF4E011828281846082830895EDECA2
:100FB000F4E080818E7F80830E94D007EAECF4E029
:100FC0008281816082830E9463070895CF93DF93BB
:100FD000EC01EC81F0E0EE56FB4F4491EDECF4E0D7
:100FE000628181810E94A8078C818F5F8C83DF9151
:100FF000CF910895EF92FF921F93CF93DF93EC016F
:1010000010E0EE24EA94F12C60911701161770F0AD
:101010000E9463079A818C8190FF25C08F5F8C832B
:10102000DF91CF911F91FF90EF900895809115016E
:10103000810F9927991F9C01220F331F280F391FF9
:10104000235B3C4F70E0C7010E946E2E962F8C816F
:101050004091D0046091CF04199F800D11240E940B
:10106000C9061F5FD1CF8150DACFA0E0B0E0EBE33B
:10107000F8E00C94102EEC01A09017018C819A815D
:1010800090FD0DC0BB24B39481110DC08FEF8A0D6C
:10109000BB24B39480934C0381E08C8304C0BB24B5
:1010A000BA948823B9F3E12CF12CEA14B8F00E9429
:1010B000630790914C03E1E0BE1254C08091170188
:1010C0008150992319F08FEF890F91E080934C03A1
:1010D0009C83CDB7DEB7EBE00C942C2E80911501EC
:1010E0008E0D9F2D911D8C01000F111F080F191FD0
:1010F000035B1C4FF80111821082128234E0C32E70
:10110000D12C912C80914C03890D83343CF162E405
:101110000E944C2E892F082E000C990B8E159F05CE
:1011200091F48091D0048C9DA0018D9D500D1124CF
:10113000559547955595479598016091CF048091B5
:10114000CE040E94C9069B0CF1E0CF1AD108C1144D
:10115000D104C1F68FEFE81AF80AA7CF87FFDBCFDB
:101160008A0DD9CF892F90E001966091170170E028
:101170000E946E2E982FAACF0F931F93CF93DF93C9
:10118000EC018C81811109C081E08C8310924B03AA
:1011900092E0909307018093060110911501209130
:1011A0001601812F90E0FC01EE0FFF1FE80FF91FE1
:1011B000E35BFC4F821750F100E0609117010617C6
:1011C00058F10E9463078091060120914B03280F7C
:1011D00020934B0390910701980F909307011916E4
:1011E00054F4022E000C330B409117014150550B63
:1011F0002417350734F0819580930601813009F476
:101200001C82DF91CF911F910F910895118210825E
:1012100012828F5F3396CECF202F30E070E0C9016D
:101220000E946E2E810F90E040914B03042E000C23
:10123000550BFC01EE0FFF1FE80FF91F24173507B0
:10124000ACF040910701042E000C550B42175307D8
:101250006CF09F01235B3C4F4091D0046091CF0420
:101260008091CE040E94C9060F5FA7CFE35BFC4FBD
:10127000118210821282F8CFAEE0B0E0E2E4F9E031
:101280000C94152E8D879E87AD85BE8514961C9176
:10129000212F30E0D9010E94FF2F9B01AC010E9459
:1012A000CA2F69837A838B839C83E0E2F0E0E11BA1
:1012B000F109A5E5B0E09B01AC010E94CA2F698746
:1012C0007A878B879C879F01DF010E948F2E9B016D
:1012D000AC010E94D52F6D837E838F8398879B01FD
:1012E000AC0189819A81AB81BC81280F391F4A1FCB
:1012F0005B1F69857A858B859C850E94DD2F022F77
:1013000030E00A3248F5A901440F551F420F531F20
:1013100055954795142F1095F12C85E5E82EE01A88
:1013200080911701F81630F10E946307AD85BE85E4
:1013300014969C9181E0992319F0903219F48FEF63
:101340008093050180910501890FED85FE858483D9
:101350002E96E6E00C94312E85E590E0821B930BEF
:10136000AC01440F551F480F591F57FFD1CF4F5F96
:101370005F4FCECF8E2DF1FC802F409115014F0D88
:101380005527551F9A01220F331F240F351F235B4A
:101390003C4F412F6091CF040E94C906F394C0CF07
:1013A000A3E0B0E0E6EDF9E00C94172E8C018091FB
:1013B0004A0381110AC09E012F5F3F4F4FEF6FEF2D
:1013C0000E94C9068A8180934A03F80164816130D2
:1013D00049F06230D1F080914A0340E0662331F059
:1013E00040E015C060914A0340E080E00E948C0715
:1013F000F801848190E0019663E070E00E946E2E17
:1014000084832396E4E00C94332E40914A0380E0D9
:1014100060E0ECCF0F931F93CF93DF93EC0100E0DC
:1014200010E040911701842F90E0081719076CF025
:101430000E9463078C8190E00196817099278C83CC
:10144000DF91CF911F910F91089580911501800F29
:10145000912F911D9C01220F331F280F391F235BF1
:101460003C4F9C816091CF048091CE04469550E022
:10147000041715074CF4992349F04091D0040E94B9
:10148000C9060F5F1F4FCDCF9923B9F340E0F7CFC7
:10149000FA01882311F009950895FB01FCCF539AB6
:1014A0000895282F35EB2303C001112497FF04C0B2
:1014B00080589109892F089580589F4FFBCF8091C4
:1014C000C10480FF0DC060914E0170E0660F771F70
:1014D00060387105C0F561157105B9F1862F089561
:1014E00081FF07C060914E0184E0689FB001112424
:1014F000EFCF82FF04C060914E0188E0F6CF80916B
:10150000C0048823E9F090914D0160914E0170E094
:10151000891730F093E0660F771F9A95E1F7D8CFDF
:10152000869F9001879F300D112483E0220F331F87
:101530008A95E1F7692F70E0C9010E946E2EC8CF2D
:1015400068E070E0CBCF8FE7089581E00895809147
:10155000C10480FF0CC060914C0170E075956795E7
:10156000759567956115710561F1862F089581FF65
:1015700006C060914C0170E075956795F3CF60915E
:101580004C0170E082FD15C02091BF042223B1F010
:1015900090914B0160914C0170E0291750F4269F07
:1015A000A001279F500D1124692F70E0CA010E94ED
:1015B0006E2E60387105B0F28FE7089561E070E03B
:1015C000D4CF81E0089580918804882359F0E09178
:1015D0008C04F0918D04309729F00190F081E02D7A
:1015E0000995089580E00895A3E0B0E0EAEFFAE0FD
:1015F0000C94192E9C018091FE019091FF0182179D
:101600009307A1F03093FF012093FE01E0918C0439
:10161000F0918D04309751F083E089833B832A83D6
:101620000084F185E02DCE01019609952396E2E034
:101630000C94352EA3E0B0E0E0E2FBE00C94192E10
:101640009C018091FC019091FD0182179307A1F00C
:101650003093FD012093FC01E0918C04F0918D0406
:10166000309751F084E089833B832A830084F1859D
:10167000E02DCE01019609952396E2E00C94352EDB
:101680009C01FC0132968FEF90E04191461751F09A
:101690008F3F19F4411101C0892F9F5F9630A9F740
:1016A0008F3F09F40895280F311D87FD3A95F90100
:1016B000628308959C01FC013296285F3F4F81911F
:1016C000861303C0DF0111971C92E217F307B9F7E5
:1016D00008952FB7F8948091640490916504A091C7
:1016E0006604B09167042FBF08950E94690B209192
:1016F000C4043091C504232B222321F080933E049F
:1017000090933F042091C6043091C704232B2223D9
:1017100021F080933C0490933D04E0918C04F0917F
:101720008D04309749F082E08093C2040680F781EF
:10173000E02D82EC94E009950895662309F44BC0EE
:10174000E3E3E80FE33150F4F0E0E05FFF4C0C948A
:10175000822E0E945F0A81958093C5040E94750BBA
:1017600008950E945F0AF8CF0E945F0A81958093D6
:10177000C404F4CF0E945F0AFACF0E94A70A8093A4
:10178000C604ECCF0E94A70A8195F9CF0E94A70A50
:1017900081958093C704E2CF0E94A70AFACF815DAA
:1017A000990B21E030E001C0220F8A95EAF7809181
:1017B000C304822B8093C304D1CF8091C104816084
:1017C0008093C104CBCF8091C1048260F9CF809116
:1017D000C1048460F5CF4091C4048D3C59F48091DC
:1017E000C50487FF0DC01092C504442359F410921C
:1017F000C00408C08E3C81F48091C50418169CF387
:10180000442381F08091C6049091C704892B8111F3
:10181000A5CF1092BF04A2CF8F3C41F447FFF0CF79
:101820001092C4048091C5048823E0CF803D19F450
:101830001416B4F3E5CF9091C604893D29F4191626
:10184000FCF61092C604DCCF8A3D19F497FFD8CF7E
:10185000F8CF9091C7048B3D29F497FFD1CF109218
:10186000C704CECF8C3D19F41916CCF3C9CF9FE233
:10187000980F983090F4815D990B21E030E0B90128
:1018800002C0660F771F8A95E2F7CB018095909191
:10189000C30489238093C304B3CF8D3D31F4809179
:1018A000C1048E7F8093C104ABCF8E3D21F4809123
:1018B000C1048D7FF7CF8F3D09F0A2CF8091C10485
:1018C0008B7FF0CFA4E0B0E0E8E6FCE00C94192EAA
:1018D0008FB7F894209164043091650440916604B8
:1018E0005091670429833A834B835C838FBF69815E
:1018F0007A818B819C812496E2E00C94352EA4E0C1
:10190000B0E0E5E8FCE00C94192E8091880488236F
:1019100071F00E94620C69837A838B839C83698156
:101920007A818B819C812496E2E00C94352E0E9472
:10193000620C69837A838B839C8380918404909169
:101940008504A0918604B091870429813A814B8156
:101950005C81280F391F4A1F5B1F29833A834B8301
:101960005C83DDCF80918804882319F00E94690B85
:1019700008950E947F0CCB0108959C014FB7F89405
:101980008091640490916504A0916604B09167040D
:101990004FBF821B930B089587E797E79093010849
:1019A0008093000888E19AE00FB6F894A895809398
:1019B00060000FBE90936000FFCF8091FB010895FF
:1019C0000895FC019B018091F1019091F20186172D
:1019D000970740F0672B29F48091E8008E77809379
:1019E000E800C90140E0009741F4411106C0809130
:1019F000E80082FF2FC080E0089520914D0422234B
:101A0000A9F12530A9F12091E80023FD2DC02091F6
:101A1000E80022FDECCF2091E80020FFE4CF3091D8
:101A2000F3002091F200009719F02830310558F0AA
:101A300041E02830310509F040E02091E8002E77A0
:101A40002093E800D0CF41914093F10001972F5FA0
:101A50003F4FE9CF80914D04882341F0853041F01C
:101A60008091E80083FFC3CF81E0089582E008956C
:101A700083E008958091EB0187FF13C08091E80017
:101A800082FF06C08091E8008B778093E80004C055
:101A900080914D048111F2CF089580914D048823E7
:101AA000D9F38091E80080FFF8CF8091E8008E772D
:101AB000ECCF2091E4003091E50095E6A9018091FA
:101AC000EC008170882331F08091E80080FF06C02F
:101AD00080E008952091E80022FD1BC080914D0414
:101AE000882391F0853091F08091EB0085FD10C046
:101AF0002091E4003091E5004217530701F3915023
:101B00009111DCCF84E0089582E0089583E0089588
:101B100081E00895E8EDF0E080818E7F808310926F
:101B2000E2001092DA001092E100A0EEB0E08C9199
:101B300081608C9380818F77808319BCA7EDB0E0A2
:101B40008C918E7F8C9380818F7E80831092EA01AE
:101B50000895FC01AC014A5F5F4F8FEF91E3219143
:101B6000822728E030E087FF0BC0880F89272150AB
:101B7000310921153105B9F7E417F50781F7089503
:101B8000880FF5CF982FE42FE2709093E900891326
:101B900008C0762F242F50E0E11111C091E0980F7A
:101BA000F4CF7091EC002091ED005091F00021FDF8
:101BB00006C09F5F973049F78093E9000895309100
:101BC000EB003E7F3093EB003091ED003D7F309392
:101BD000ED003091EB0031603093EB007093EC003E
:101BE0002093ED005093F0002091EE0027FDE1CF0F
:101BF0000895A0E0B0E0EFEFFDE00C94132EC8EDE7
:101C0000D0E088818F7E8883E7EDF0E0808181607D
:101C1000808384E082BF81E08093EA0188818E7FA7
:101C2000888302EE10E0F80110821092DA0081EE53
:101C3000C82ED12CF601108288818F778883888105
:101C40008068888388818F7D888319BC10924D04B9
:101C50001092E901109225041092E80190EEE92E0D
:101C6000F12CF70180818B7F80838881816088835C
:101C700042E060E080E00E94C20DF60180818E7F2C
:101C80008083F80180818160808380818860808387
:101C9000F70180818E7F8083888180618883CDB7C2
:101CA000DEB7E8E00C942F2E9C01AB016BB1677F8F
:101CB0007BB17860EFB7F894CA01880F991F840F41
:101CC000951F820F931F8217930741F4EFBF8FE593
:101CD00094E00197F1F700C000000895D9014D91FB
:101CE0009D0158E07BB9000000C047FF6BB9440F6D
:101CF000000000C000C000C06BB900C05A9591F749
:101D0000E2CF0F931F93CF93DF93EB018A01909162
:101D10004D04943079F58093E9008FEF9091E800BD
:101D200095FD07C095ED9A95F1F70000815081115E
:101D3000F5CF8091E80085FF1DC00E94590D8111EB
:101D400014C08091E80085FD06C08091E8008E7780
:101D50008093E800F2CF88818093F100015011094F
:101D60000115110511F02196ECCF8091E8008E77D6
:101D70008093E800DF91CF911F910F910895CF9349
:101D8000DF93D82FC92F48E050E0682F792F81E0EA
:101D90000E94810E88E0ED2FFC2FA3EFB1E00190AF
:101DA0000D928A95E1F7DF91CF910895BC0146E04D
:101DB00050E084E00E94810E0895BC0143E050E0B1
:101DC00084E00E94810E0895A0E0B0E0EAEEFEE01B
:101DD0000C94112EF82EE92EB62EA72E8A01809192
:101DE000E601CC24C394D12C8A3018F48AE0C82EA2
:101DF000D12CC1E0D0E06B2D7A2D8F2D9E2DF801D6
:101E00000995811116C02196CC16DD0694F0CC9F61
:101E1000C001CD9F900D900D112420E030E045E3EE
:101E20004A95F1F700002F5F3F4F28173907B9F7A0
:101E3000E2CFCDB7DEB7EAE00C942D2E9091DC0412
:101E400092FB222720F9281779F080FB92F99093D2
:101E5000DC046091DB047091DC0484E090E00E947B
:101E6000952F82E00E94810408951F93CF93DF9302
:101E7000C62F122F632F8430D8F4CC30C8F44830EA
:101E8000B8F490E1C99FE001112450E0440F551FC0
:101E9000C40FD51F90EC899FC00DD11D1124CE0118
:101EA00088960E94772F612FCE0189960E94772F06
:101EB000DF91CF911F910895AF92BF92CF92DF92A1
:101EC000FF920F931F93CF93DF93A12CB12CC0E00F
:101ED0006501D0E019C021E030E0C33021F0F80105
:101EE000859194919C014F2D6D2F8C2F0E94350F61
:101EF000F3940E5F1F4F88E0F812EDCFDF5F88E0AC
:101F0000C80ED11CDC3039F08601000F111F0E5AAB
:101F10001D4FF12CE0CFCF5F80E6A80EB11CC4307E
:101F2000B9F6DF91CF911F910F91FF90DF90CF9085
:101F3000BF90AF900895CF93DF93C8E2D3E060E005
:101F4000CE010E94772F2196C11584E0D807B9F7FA
:101F5000DF91CF910895882381F064E284E290E0DC
:101F60000E94772F69E085E290E00E94772F62E27D
:101F700086E290E00E94772F08956FEF84E290E070
:101F80000E94772F6FEF85E290E00E94772F6FEF2E
:101F9000EFCF80E00E94AB0F60E087E290E00E940C
:101FA000772F0E945C0F0E949B0F81E00E94AB0F75
:101FB00008950F931F93CF93DF93843030F56C30E7
:101FC00020F5483010F520E1629FE001112450E037
:101FD000440F551FC40FD51F30EC839FC00DD11D7A
:101FE0001124CE0188960E94532F082F10E0102F45
:101FF0000027CE0189960E94532F9801282BC901F2
:10200000DF91CF911F910F91089580E090E0F8CF7C
:10201000462F672F7C3038F4483028F4843018F489
:102020000E94D90F089580E090E00895A0E0B0E00C
:10203000ECE1F0E10C94142E7C010091D904809124
:10204000D804082BC3E0D0E010E0C8010C2E02C079
:10205000959587950A94E2F780FD09C02197A8F726
:10206000D12C8D2DCDB7DEB7E7E00C94302EDC2ED1
:10207000B7018C2F0E9408100E949405019771F3FC
:10208000F0CF0F931F93CF93FC01858100811181C5
:10209000882391F0662381F0C8010E941610C82F92
:1020A000682FC8010E94EF03B8018C2F0E9408100E
:1020B000CF911F910F910895C8010E942304C82F4A
:1020C000F3CFCF93DF93D82FC92F0E9416106D2F17
:1020D0007C2F0E9408100E949405DF91CF910895F3
:1020E000FC0184818823A1F0808191810E9461108C
:1020F000282F92959F70963091F060F4925F9F70B8
:10210000923030F481E0203F79F030F4283E30F016
:1021100080E004C09A5FF3CF243FD1F7089581E0B7
:10212000283E18F0213FF9CF0895089584E290E009
:102130000E94532F843289F485E290E00E94532F4D
:10214000893059F486E290E00E94532F91E0823268
:1021500009F090E0892F8170089580E0FCCF809194
:10216000D5049091DD04892B4091D604442389F055
:1021700090E024ED31E0F90150812F5F3F4F511184
:102180009F5F51E02A3D3507B1F791111092D604B7
:10219000842B8093D20148E050E06EE874E082ED39
:1021A00091E00E943D2F892BA9F088E0E2EDF1E05B
:1021B000AEE8B4E001900D928A95E1F7E0918C04CD
:1021C000F0918D04309731F00280F381E02D82EDA3
:1021D00091E009950895CF931092D504C6E0E4EDFF
:1021E000F1E0DF018C2F1D928A95E9F780E090E005
:1021F0000E94F40A80E090E00E941A0B1092DD0425
:102200000E94AF10E2ECF4E0DF011D92CA95E9F7FD
:102210001092C0041092BF041092C1040E94750B6A
:10222000CF9108950E94EB102FEF84E39CE02150A2
:1022300080409040E1F700C0000088E19AE00FB6CE
:10224000F894A895809360000FBE90936000FFCF34
:10225000AAE2B0E0EEE2F1E10C94182E8BEE91E0F0
:10226000FC0101962091F100208321E0833F920739
:10227000B9F78091EC01893009F456C0C8F4823076
:1022800009F4B3C0833009F482C0813071F18091C8
:10229000E80083FFE7C08091EB019091EC019A3058
:1022A00008F0E0C0E92FF0E0ED5DFF4C0C94822EC9
:1022B0008A3009F489C08B3051F78091EB0181326B
:1022C00031F78091EF019091F001892B01F7809116
:1022D000E800877F8093E8000E943A0D8091ED012D
:1022E000809304010E94EB10D2CF8091EB01813AE0
:1022F00071F68091E800877F8093E8008091EF017C
:102300009091F001892B61F060E080E090E070E056
:102310000E94E10C8091E8008B778093E800B7CFB2
:1023200068E083EF91E0F3CF8091EB01813209F017
:10233000AECF8091EF019091F0018D7F892B09F054
:10234000A6CF8091E800877F8093E8008091E80025
:1023500082FF18C09091F3008091F200029731F44F
:102360008091F100813011F0863021F48091F100EC
:102370008093FB018091E8008B778093E8000E94B6
:102380003A0D85CF80914D048111E0CF80CF8091AF
:10239000EB01813A09F07BCF8091EF019091F00140
:1023A000892B09F074CF8091E800877F8093E80043
:1023B0008091E80080FFFCCF809104018093F100C0
:1023C0008091E8008E77D9CF8091EB01813209F0BE
:1023D0005ECF8091E800877F8093E8000E943A0DED
:1023E0008091EE018093E70152CF8091EB01813A19
:1023F00009F04DCF8091E800877F8093E8008091BD
:10240000E80080FFFCCF8091E701D8CF803889F0C9
:10241000823841F58091EF018F70873018F58093F5
:10242000E9008091EB0085FB882780F91092E90094
:1024300006C08091E80190912504911182609091ED
:10244000E800977F9093E8008093F1001092F100EC
:102450008091E8008E7723C0811116C08091ED0134
:10246000813011F18091E80083FF0AC08091E8007B
:10247000877F8093E8008091EB0080628093EB007F
:10248000AA96E3E00C94342E823061F78091ED013E
:10249000882389F01092E9008091E800877F80937B
:1024A000E8000E943A0DDECF81E0933009F080E031
:1024B00080932504EFCF8091EF018F702FEF280FCD
:1024C000263080F68093E9002091EB0020FFE2CFD8
:1024D000933031F48091EB0080628093EB00DACF8F
:1024E0009091EB0090619093EB0021E030E0A90126
:1024F00002C0440F551F8A95E2F74093EA001092FC
:10250000EA008091EB008860E8CF8111ABCF109199
:10251000ED011F778091E3008078812B8093E300A9
:102520008091E800877F8093E8000E943A0D8091B7
:10253000E80080FFFCCF8091E30080688093E30097
:1025400083E0111101C082E080934D048BCF80584D
:10255000823008F087CF4091ED015091EE014C3D63
:1025600083E0580799F583E08A838AE289834FB72D
:10257000F894DE01139620E03EE051E2E32FF0E014
:1025800050935700849120FF03C082958F703F5F66
:102590008F708A30C8F0895C90E08D939D932F5F97
:1025A000243161F74FBF8091E800877F8093E80076
:1025B0006AE270E0CE0101960E94E10C8091E80091
:1025C0008B778093E8004ECF805DE6CF8091EF015E
:1025D0009091F001252F33272330310509F44AC0AB
:1025E00078F52130310509F479C08BE590E0EDE80C
:1025F000F1E02230310509F035CF2091E800277F46
:102600002093E8002091F1013091F20182179307A5
:1026100008F49C0140E02115310509F064C0411126
:1026200062C08091E80082FDC9CF80914D0488236B
:1026300029F2853019F28091E80083FFF2CFBECFF6
:102640002132310509F43BC02232310509F00ACFAD
:102650008330910508F006CFFC01EE0FFF1FED5A05
:10266000FE4F0190F081E02D805B9E4FDC018C914C
:1026700090E011C0CA019927413089F0823091055C
:10268000B1F0892B09F0EECEEEE4F2E0E4918E2F6A
:1026900090E0EEE4F2E0009709F4E4CEAECFEEE293
:1026A000F2E0E4918E2F90E0EEE2F2E0F4CFEAEF78
:1026B000F1E0E4918E2F90E0EAEFF1E0ECCF83308F
:1026C000910508F0CFCEFC01EE0FFF1FE75AFE4F39
:1026D0000190F081E02D89E090E08FCF82E190E0E1
:1026E000E8EEF1E08ACF80914D04882309F466CFAB
:1026F000853009F463CF8091E80083FD5FCF80913E
:10270000E80082FD8ECF8091E80080FF84CF909119
:10271000F3008091F2002115310519F08830910500
:1027200050F041E0089709F040E08091E8008E7792
:102730008093E80070CF44914093F100319621508E
:1027400031090196E8CF803809F08CCE8091E800FD
:10275000877F8093E8008091E9018093F10078CE33
:10276000811180CE1091ED01123008F07BCE809166
:10277000E800877F8093E8001093E9010E943A0DFA
:102780001123D1F084E080934D0442E061EC81E0BC
:102790000E94C20D42E261EC84E00E94C20D42E25E
:1027A00061EC82E00E94C20D42E260EC83E00E9494
:1027B000C20D80914D0456CE8091E30087FDE2CF9B
:1027C00081E0E1CF882399F19CEF980F913A40F492
:1027D000682F82ED91E00E945A0B0E94AF1008957D
:1027E00090E2980F983050F4877091E001C0990FF3
:1027F0008A95EAF7892F0E949904EFCF9BE5980FFD
:10280000933028F480E090E00E94F40A089598E55F
:10281000980F9B3128F480E090E00E941A0B0895F5
:1028200093E3980F933118F460E00E949D0B089594
:10283000882339F09091D504892B8093D5040E9488
:10284000AF100895882321F00E9499040E94AF10D0
:102850000895A0E0B0E0EFE2F4E10C94132E8901BA
:10286000D42FC52F6B017C010E945507A8016D2F45
:102870007C2F88E090E00E94892F98014D2F5C2FDB
:10288000B601C70100E20E94B92E622F83E290E0F8
:102890000E94772FCDB7DEB7E8E00C942F2E809101
:1028A000D104833018F48F5F8093D1042091CD043C
:1028B0003091CE044091CF045091D0046091D10466
:1028C0007091D2048091D3049091D4040E94291471
:1028D00008958091D104882319F081508093D10408
:1028E0002091CD043091CE044091CF045091D0047A
:1028F0006091D1047091D2048091D3049091D4045A
:102900000E9429140895A3E0B0E0E9E8F4E10C94F2
:10291000112EF82ED62EE42EB22E9091CD0490FFDB
:1029200042C03091CE04381308C08091CF04861382
:1029300004C08091D004841729F08091CC04826077
:102940008093CC04E92FE695E695AE2FB0E0A15A2E
:10295000BE4F8C918093CA049C7F943041F59E01B8
:102960002F5F3F4F4E2D6D2D8F2D0E94C9064B813D
:1029700069818A810E948C073F2D3093CE04D092CA
:10298000CF04E092D004BB2071F02091CD0460917F
:10299000D1047091D2044D2D5E2D8091D30490917D
:1029A000D4040E9429142396EAE00C942D2E823040
:1029B00019F4E090D004E0CF8630F9F28930E9F2E2
:1029C0008931D1F6E9518E2F8170A82EE695F0E07D
:1029D000EE56FA4FE491C12C0E2F10E060911701D2
:1029E000C61618F00E946307C7CF2C2D30E0C09E9A
:1029F000C001C19E900D112470E00E945A2E8F2DAF
:102A0000A11013C0860F90911501A901490F511D06
:102A10009A01220F331F240F351F235B3C4F4E2D8D
:102A20006D2D0E94C906C394D9CF861BECCFEDEC67
:102A3000F4E0818121E0438162818A5F0E948314F6
:102A40000895EDECF4E0818121E0438162818650BC
:102A50000E9483140895EDECF4E0628126E0620F99
:102A600008F46FEF21E0438181810E94831408956F
:102A7000EDECF4E0628126E0621B08F460E021E006
:102A8000438181810E9483140895EDECF4E0438139
:102A900026E0420F08F44FEF21E0628181810E941D
:102AA00083140895EDECF4E0438126E0421B08F422
:102AB00040E021E0628181810E9483140895A8E0B2
:102AC000B0E0E5E6F5E10C94192E65EE7EEF80E0CE
:102AD00090E00E94952F60E082E090E00E94772FC6
:102AE00081E08093D80461E083E090E00E94772F3A
:102AF00060E074E184E090E00E94952F60E086E061
:102B000090E00E94772F60E087E090E00E94772FAE
:102B100040E050E0BA0188E090E00E94892F60E038
:102B200083E290E00E94772F60E08CE090E00E94CA
:102B3000772F60E08DE090E00E94772F19821A8253
:102B40001B821C821D821E821F82188648E050E074
:102B500067E170E0CE0101960E94672F40E050E0EF
:102B6000BA018FE190E00E94892F80E00E94AB0FB4
:102B70000E94C90F40E050E0BA018FE090E00E944F
:102B8000892F40E050E0BA0183E190E00E94892F54
:102B90002896E2E00C94352E8B3258F4853090F074
:102BA000EBEFE80FE63270F4F0E0E35DFF4C0C94DD
:102BB000822E833448F48A3308F05AC0853331F0CA
:102BC000883361F080E008958334E1F781E00E946A
:102BD000CD030E94EB1002C00E945F1581E00895B2
:102BE00080912604807F8093260481E08093BE0438
:102BF000F5CF0E94EB102FEF84E39CE02150804042
:102C00009040E1F700C000000E94CC0C9091260497
:102C1000892F8E7F90FF81608093260480FDDECF18
:102C2000817F80932604DACF90912604892F8D7FAF
:102C300091FF82608093260481FFD0CF809126048B
:102C40008160EFCF90912604892F8B7F92FF846063
:102C50008093260482FDF2CFC1CF90912604892F64
:102C6000877F93FF88608093260483FDE7CFB6CFEC
:102C7000895391E001C0990F8A95EAF7892FA7CF70
:102C80008D51F7CFCF93C82F8823E1F18CEF8C0FB4
:102C9000813A08F0BFC08091BE04813001F18230DA
:102CA000B1F1811131C08091D504823229F48C2F89
:102CB0000E94CC15811126C0E4EDF1E08AED91E08F
:102CC0002191C21709F4DAC08E179F07C9F76C2F3C
:102CD00082ED91E00E94400B0E94AF1013C08091E2
:102CE000D504823221F3C43179F040F4CB3051F075
:102CF000C03111F782E08093BE0404C0C93221F0D4
:102D0000C833D1F6CF9108951092BE04D5CFCF34F9
:102D100009F46DC0B0F4C83290F4CE3140F5C7303C
:102D200009F449C0C43171F78091BD04882351F37F
:102D30001092BD041092BC041092BB04E3CFC932C0
:102D4000F2CFC13509F448C091E0C23509F450C052
:102D5000C035C1F6E091BB04F091BC04309791F20C
:102D600080818A50990B97FF53C01082CBCFCD51F1
:102D7000C093BD04C430C9F078F48FE491E0C23050
:102D800031F08EE491E0C33011F08AEB94E090933F
:102D9000BC048093BB04B6CFC53051F08BE491E006
:102DA000C630A9F31092BD04ADCF8DE491E0EFCF12
:102DB0008CE491E0ECCF1092BA0484E180934F014F
:102DC000C0934E018CE380934D0188E080934C01C9
:102DD00088E280934B0196CFE091BB04F091BC0454
:102DE000309709F48FCF80818150990BBCCF9AE046
:102DF000E091BB04F091BC04309709F483CF80814B
:102E0000890F9927991F8F3F910511F00CF08FEFD3
:102E1000808378CF80E28C0F883068F4C77021E01F
:102E200030E001C0220FCA95EAF78091D504822BC9
:102E30008093D50451CF8BE58C0F833038F42C2F41
:102E40002452330BC9010E94F40A5CCFE8E5EC0F71
:102E5000EB3150F4F0E0EE0FFF1FE656FE4F80819D
:102E600091810E941A0B4ECF83E38C0F833108F0BF
:102E700049CF61E08C2F0E949D0B44CF6C2F82EDD7
:102E800091E00E945A0B0E94AF1021CF1F93CF9365
:102E9000DF93182FEB010E944216209739F4812FFF
:102EA0000E94E213DF91CF911F9108958FE99FE077
:102EB0000197F1F700C000002197EFCF0F931F9308
:102EC000CF93DF93C62FD42F122F8823A9F06093BE
:102ED000C8040E94690B9093E5018093E401C770D8
:102EE00081E001C0880FCA95EAF70E941814DF91AB
:102EF000CF911F910F9108958091C804681336C037
:102F00008091E4019091E5010E94BD0C883C9105FF
:102F100068F5CD130EC060E070E0812F0E94461767
:102F2000D77081E001C0880FDA95EAF70E94221479
:102F3000DECFC77001E0802F01C0880FCA95EAF785
:102F40000E94221480E28D0F883050F48D2F8770FC
:102F500001C0000F8A95EAF7802F0E941814DBCF7A
:102F600060E070E0812F0E944617C1CFC77081E0FA
:102F700001C0880FCA95EAF7D9CFA8E0B0E0E3EC2A
:102F8000F7E10C94182E4091520450915304609133
:102F90005404709155042FB7F89480916404909173
:102FA0006504A0916604B09167042FBF841B950B44
:102FB000A60BB70B11E084369105A105B10578F198
:102FC0000E947F0CDC01CB010296A11DB11D8983FB
:102FD0009A83AB83BC8380913C0190913D018859D9
:102FE0009B4F20913B01422F50E0253010F044E0F0
:102FF00050E0BE016F5F7F4F0E944A2F83E090E058
:103000000E94942D182F882351F00E94620C609327
:103010005204709353048093540490935504812F69
:103020002896E3E00C94342EA0E0B0E0EAE1F8E169
:103030000C94132EE82FEB01B901D801C880D98078
:10304000EA80FB808FB7F8940091640410916504C6
:1030500020916604309167048FBF0C191D092E0959
:103060003F09043611052105310510F4442309F107
:103070000E2F0E2E000C110B88E0E802F001112437
:10308000ED5DFE4F8181928188599B4F408150E0D8
:10309000A417B50708F4AD010E944A2FC8010E9489
:1030A000942D882339F00E94620C688379838A8387
:1030B0009B8381E0CDB7DEB7E8E00C942F2E0F9311
:1030C0001F93CF93DF93D82FC92F46E050E06FE6D0
:1030D00074E00E943D2F41E0892B09F440E006E0B6
:1030E00010E02D2F3C2F66E574E082E00E9414185A
:1030F000DF91CF911F910F910895ABE0B0E0E3E82D
:10310000F8E10C94172E28E0EDECF4E0CE010196E6
:10311000DC0101900D922A95E1F73091CA042091CB
:10312000CB045091CC0439872A875B8741E09C010E
:10313000511101C040E00BE010E06EE474E084E067
:103140000E94141881111092CC042B96E4E00C9488
:10315000332EA7E0B0E0EFEAF8E10C94162EF62E3D
:10316000072F80E090E00E94942D182F882309F407
:1031700069C080912601482F50E0882311F041E07A
:1031800050E0609127017091280168597B4FCE0172
:1031900007960E944A2F409160045091610460910B
:1031A0006204709163042FB7F89480916404909145
:1031B0006504A0916604B09167042FBF841B950B32
:1031C000A60BB70B84369105A105B10538F489E645
:1031D00094E00E94A90D9F818917A1F181E090E000
:1031E0000E94942D8823C9F180912E01482F50E030
:1031F000873010F046E050E060912F01709130016F
:1032000068597B4FCE0101960E944A2F89E694E0CF
:103210000E94A90D9F81891320C00E94620C6093B7
:10322000600470936104809362049093630486E069
:10323000FE013196AAE5B4E001900D928A95E1F77E
:1032400081E00CC086E0E9E6F4E0DE011196019031
:103250000D928A95E1F71111EACF80E096E0EAE558
:10326000F4E0AF2DB02F01900D929A95E1F72796DB
:10327000E5E00C94322EA0E0B0E0E1E4F9E10C943A
:103280000B2EFC016280448081E08483E2E9F4E05B
:103290007490E1E1F5E0E491C091D004C695C15885
:1032A000D0E0CC0FDD1FCD2FDD27812C75E0972ED0
:1032B000AA24AA94B12C55245A94E719EE2EF12C85
:1032C00080911701881638F00E946307CDB7DEB7EA
:1032D000E0E10C94272EC82CD12C82E0861568F0F2
:1032E0009C9CF0019D9CF00D1124E050FE4F8091BC
:1032F000CE0480838091CF048183411023C09C9CA5
:10330000F0019D9CF00D1124E050FE4F13821282BB
:10331000809115018C0D9D2D911D9C01220F331F55
:10332000280F391F235B3C4F9C9CF0019D9CF00DA6
:103330001124E050FE4F4281618180810E94C906C4
:103340008394BECF9C9C80019D9C100D1124005045
:103350001E4FF80183818823F1F081508383589EAA
:10336000C0011124648170E00E945A2EFB01FF27E6
:10337000EE56FB4F8491E82FE7195E9EC0011124A1
:10338000B7010E945A2E8091D004689FB001112489
:10339000F8017283BDCF0E94202FB5010E946E2ECE
:1033A0008C179D070CF0B4CFF2E0F61598F40E944C
:1033B000202FB5010E946E2EF80180830E94202FDD
:1033C0002091CF042695622F70E00E946E2E280F68
:1033D000F80121839C9CF0019D9CF00D1124E0508C
:1033E000FE4F12828091D004893C58F088EC9C9C5E
:1033F000F0019D9CF00D1124E050FE4F84838383E7
:1034000087CF8431A0F784E1F2CF6091CD04669537
:10341000669570E04BE050E088E091E00E94302F2C
:10342000892B19F481E08093CB040E94B20C909315
:103430003704809336048091CC0484608093CC045C
:1034400008959091CD0490FF42C0882309F440C0B4
:103450008B3208F03FC08F73282F220F220F8091EC
:10346000CD048370282B2093CD048091CC048160FF
:103470008093CC04662381F03091CE044091CF0438
:103480005091D0046091D1047091D2048091D30402
:103490009091D4040E9429146091CD04669566959C
:1034A00070E04BE050E088E091E00E94302F892BE3
:1034B00099F00E94D00781E08093390420E0409188
:1034C000D0046091CF048091CE040E9483140895AB
:1034D00081E0C2CF8AE2C0CF0E94051AECCF809172
:1034E000CD04869586958F5F8B3208F081E061E090
:1034F0000E94211A08959091CD04969596958FEF8C
:10350000890F913009F48AE261E00E94211A08953E
:10351000EDECF4E080818160808360E086958695A3
:103520000E94211A08959091CD0490FF09C09695AC
:103530009695981728F0961718F40E946F1A089518
:1035400061E00E94211A0895A8E0B0E0EAEAFAE1F9
:103550000C940C2E6C01DC0114968C91882309F4D8
:10356000B4C061E0C6010E9441108C01F601858162
:10357000882309F49CC5980137572038310508F095
:10358000A1C5003108F090C08FEF93E00E94532F47
:1035900081118AC028E2E22E23E0F22E011153C0ED
:1035A0001A821982FE01339686E0DF011D928A9508
:1035B000E9F75701BFEFAB1ABB0AC7010E94532FAF
:1035C00089831A82882309F46FC0813009F081C091
:1035D00087010E5F1F4FC5010E94532F8A838823E6
:1035E00009F462C09FEF980F9330E0F5E3E0EE0E30
:1035F000F11CC8010E94532F8B83882309F454C007
:103600001C828E010F5F1F4FD8018C91882389F295
:10361000813009F0A1C011968C911197813009F089
:103620005AC05801B2E0AB0EB11CF801828160E0D3
:1036300070E0893311F460E570E00E94461785015F
:103640000F5F1F4FE1CFE114F4E0FF0669F1C701FE
:103650000E94532F97012F5F3F4F79018111F3CFC4
:1036600001509CCF8430B9F492E0E92EF12CC801CE
:103670000F5F1F4F0E94532FE1E0F0E0EC0FFD1FA2
:10368000EE0DFF1D8083882379F08C3731F4FE0125
:10369000EE0DFF1D12827801B4CFFFEFEF1AFF0A83
:1036A00027E0E216F10419F78091DA048770882385
:1036B00061F0D60115968C91882339F08091DC0455
:1036C00082FF03C082E00E9481042896EFE00C9400
:1036D000282E750196CF823049F45801F2E0AF0EE2
:1036E000B11C12968C910E944216A9CF833049F4E6
:1036F0005801B2E0AB0EB11CF80182810E94E213C6
:103700009ECF843019F00F5F1F4F9ACF12962C91E5
:103710000E5F1F4F80E090E06AE0A8014F5F5F4FAF
:103720002053330B2A30310558F0009709F488CF25
:10373000AFE9BFE01197F1F700C000000197F5CFA6
:10374000689FF001699FF00D1124C9018E0F9F1F22
:10375000F80121818A01E1CFE82FF0E0E452F94F2E
:103760006490282F26952695269530E0F901E4539C
:10377000F94FA4908770782EB12C082E02C0B59412
:10378000A7940A94E2F7B1E0AB22BB24F901E45418
:10379000F94F8490912C02C0959487948A95E2F712
:1037A000E1E08E229924F901E455F94F5490A114D7
:1037B000B104C1F48114910421F560E070E0862D1C
:1037C0000E944617E52DF0E0072C02C0F595E7951D
:1037D0000A94E2F7E0FF34CF60E070E08CE20E94F0
:1037E00046172ECF81EE0E9442168114910449F4AF
:1037F00060E070E0862D0E94461781EE0E94E21381
:10380000E1CF86EE0E94421660E070E0862D0E94B5
:10381000461786EE0E94E213AB28A1F2EECF26E215
:1038200041EE61EE0E945E173FCF27E245EE65EE66
:10383000F9CF26E241EE60EEF5CF27E245EE64EEE9
:10384000F1CF26E241EE62EEEDCF27E245EE66EEE5
:10385000E9CF28E241E0EBCF0631FCE71F0709F092
:10386000E0C08091C90469E2811165E382ED91E0D5
:103870000E945A0BD3C08091DB0481608093DB04EB
:103880006091DB047091DC0484E090E00E94952F4D
:103890000E94EB1009CF8091DC0488608093DC04E7
:1038A000EFCF8091DB048260E9CF8091DB048460FC
:1038B000E5CF8091DB048860E1CF8091DC048160FA
:1038C000EDCF8091DC048260E9CF8091DB048061E0
:1038D000D5CF8091DB048062D1CF8091DB048064FE
:1038E000CDCF0E94EB108091DB048068C7CF809120
:1038F000DB048C60C3CF8091DC048360CFCF8091E8
:10390000DB048E7FBBCF8091DC04877FC7CF8091A3
:10391000DB048D7FB3CF8091DB048B7FAFCF8091B1
:10392000DB04877FABCF8091DC048E7FB7CF8091A3
:10393000DC048D7FB3CF8091DB048F7E9FCF80919D
:10394000DB048F7D9BCF8091DB048F7B97CF0E9420
:10395000EB108091DB048F7791CF8091DB04837F24
:103960008DCF8091DC048C7F99CF8091DB0482FB2A
:10397000992790F921E0922790FB82F990FB83F937
:103980007DCF8091DC04982F909591708E7F892B4C
:1039900090FB81F983CF9091DB04892F8F7B96FF79
:1039A00080646CCF0E94EB109091DB04892F97FB11
:1039B00087F9805863CF61E08EE090E00E94772F16
:1039C0005FCF60E0F9CF9091DB04892F8F7E94FF69
:1039D000806154CF9091DB04892F8E7F90FF8160AE
:1039E0004DCF9091DC04892F877F93FF886056CF5D
:1039F00006312CE7120709F0A1C08091D5048A7A1C
:103A000091E0811101C090E09093C90465E38111B8
:103A100001C069E282ED91E00E94400B0E94AF106C
:103A200043CE8091D5048272F801E052F847E53127
:103A3000F10508F0AFC0ED5AFF4C0C94822E809136
:103A4000CD0480FF1EC0282F2E7F2093CD043091FF
:103A5000CE044091CF045091D0046091D104709174
:103A6000D2048091D3049091D4040E9429140E941E
:103A7000D0078091CC0481608093CC040E946307BE
:103A800013CE81608093CD0461E0869586950E9477
:103A9000211A0ACE4BE75AE16FE67AE10E94480A02
:103AA00003CE4FE65AE16BE77AE1F8CF41E255E108
:103AB00067E175E1F3CF47E155E161E275E1EECFF2
:103AC00048E355E16BE275E1E9CF4BE255E168E38C
:103AD00075E1E4CF42E555E165E475E1DFCF45E40A
:103AE00055E162E575E1DACF49E654E16FE474E14E
:103AF000D5CF4FE454E169E674E1D0CF61E081E0D5
:103B0000C6CF65E082E00E94931ACECD68E086E0E1
:103B1000FACF6EE089E0F7CF64E18FE0F4CF67E1A0
:103B200085E1F1CF61E088E1B2CF62E289E1EBCFDC
:103B300061E083E2ACCF6AE285E2E5CF07373CE79C
:103B4000130709F484C008378CE7180709F48CC000
:103B50000A35BCE71B0709F4A4C008F087C0013090
:103B6000FCE71F0709F49BC003302CE7120709F498
:103B700090C001153CE71307C1F40E94EB10AFEFB2
:103B8000B4E3ECE0A150B040E040E1F700C0000039
:103B90000E94CC0C07379CE7190709F461C082E04A
:103BA0000837ACE71A0709F45CC0F6018581E080AC
:103BB000F180882309F479C0C7010E941610182FDC
:103BC000682FC7010E94EF03B701812F0E940810E0
:103BD0000E949405E82E192FD6011596BC901597D2
:103BE0001696AC90A2948FE0A8228091DA04877098
:103BF000882309F1FB2CBB20F9F0892F807F8034CA
:103C000069F080E28E0D8830B0F0892F807E80329E
:103C100029F4B1E0BE1578F4AA2069F08091DC04A3
:103C200082FF09C082E00E9481048091DA048770DB
:103C3000FF24F3948111F12CE12FE295EF70103CF9
:103C400008F09AC0F0E0E859FF4C0C94822E81E015
:103C50000E94D30343E062E081E00E94560424CD39
:103C600081E00E94DF03F6CF82E0F2CF0B358CE7D4
:103C70001807C9F00C359CE7190709F096CF809119
:103C8000DC0482FB882780F991E089270E941E0FBF
:103C90008CCF6FEF7FEF80E090E00E94952F0E9425
:103CA000121181E0F3CF80E0F1CFC7010E9423041D
:103CB000182F8ACF012F0F70103110F00295007F5E
:103CC000BB20B9F0002369F080E28E0D883010F03F
:103CD000E11009C08091D504802B8093D5040E9407
:103CE000AF108E2D41C08091DD04802B8093DD04C8
:103CF000F6CF8E2D0E94E2130023F1F180E28E0DAB
:103D0000883010F0E11004C0802F0E94990406C092
:103D100000958091DD0480238093DD040E94AF1024
:103D20002BC0012F0F70107F103211F00295007F11
:103D3000EE2051F0E1E0EE1609F46CC0BB2009F46E
:103D400078C0AA20D1F1CDCF8091DC0482FD31C0B2
:103D5000BB2069F0002339F08091D504802B80933B
:103D6000D5040E94AF1080E00E94421605C080E09A
:103D70000E94E2130111C8CFFF20B1F08091DA0454
:103D800080FD12C0D60115961C9286958695869563
:103D90000E94D303C6010E94A41A8091DA0486957A
:103DA000869586950E94DF0360E0C6010E9441105F
:103DB0008CCCBB2099F0A11004C0802F0E94181455
:103DC000DBCFF1E0AF12D8CF8091D604902F9823AB
:103DD000091791F2802B8093D604CECFA110CCCFBF
:103DE000802F0E9422149091D604802F892388234B
:103DF00029F0802F809589238093D6048091D70461
:103E0000902F9823992309F4B7CF009508230093A6
:103E1000D704B2CFBB2029F025E02A1508F4ACCF97
:103E2000CCCF34E03A1508F4A7CF802F0E9422149B
:103E3000A3CFAA20D1F389E3E81209C09FEFA7EE30
:103E4000B3E09150A040B040E1F700C000008E2DDB
:103E50000E94E21391CF812F8695869583708823E7
:103E600069F0813009F088CF8E2D912F9370B110B9
:103E700002C080E090E00E941A0B7ECF8E2D912F21
:103E80009370B11002C080E090E00E94F40A74CFF9
:103E90006B2D8E2D0E949D0B6FCF812F8370811112
:103EA00037C0B1102AC04E2D429546954770440F39
:103EB000440F2E2D2F70042E01C0220F0A94EAF712
:103EC0009E2D9071992341F08FE090E001C0880F02
:103ED0004A95EAF7982F909516951695137012301B
:103EE00091F0892F822B133031F08091D80411305A
:103EF00039F0292B82230E94CD030E94E30A3CCF94
:103F0000822B892BF8CF292B8091D8048227F3CFDD
:103F1000BB2069F110FFF1CF4E2D429546954770B9
:103F2000440F440F2E2D2F70042E01C0220F0A942F
:103F3000EAF79E2D9071992341F08FE090E001C047
:103F4000880F4A95EAF7982F909516951695137055
:103F5000123099F0892F822B133031F08091D904DF
:103F6000113041F0292B82230E94D003C6CF82302A
:103F700020F2D2CF822B892BF7CF292B8091D90425
:103F80008227F2CF1F70BB2039F0812F0E94D3030C
:103F90008E2D0E941814B1CF8E2D0E942214812FD5
:103FA0000E94DF03AACFE2EFEE16A9F1EE1588F02A
:103FB000F0EFEF16D9F021EFE21609F443C0BB2071
:103FC00009F462C0AA2009F45CC08E2D0E9442163A
:103FD00094CF33EFE31631F184EFE81679F1B110A5
:103FE000F1CFA11060C0812F8F71DACFBB2081F09B
:103FF00094E09A1508F481CF1F7181E090E0012EC2
:1040000001C0880F0A94EAF79091D9048927ACCFB0
:10401000A5E0AA16EFCF812F8F71B110C1CF0E94FA
:10402000D3036BCF80E0BB2009F49ECF1F7181E0EA
:10403000012E01C0880F0A94EAF796CF9091DC0414
:1040400092FD06C0812F8F71BB2009F4A9CFE7CF65
:10405000BB2061F0812F8F7192FFE1CFB8E08B9F81
:104060009001112423602093DA04D9CF81E00E94CB
:104070008104E1E0EA1508F040CF82E00E9481046B
:104080003CCF812F8F71CBCFAA2009F4ACCFF9E3BD
:10409000EF1209C02FEF37EE83E02150304080400F
:1040A000E1F700C000008E2D0E94E21326CFF80138
:1040B000E851FC47E730F10508F0CECBEC58FF4C57
:1040C0000C94822EF801E851FC47E730F105B0F37B
:1040D0001092C804C8019057839708F089CC84E0F7
:1040E00090E00E94612F9093DC048093DB04F80140
:1040F000E150F047E232F10508F0BDCBE558FF4C46
:104100000C94822E80911E05803178F480911D05DB
:10411000882359F0E091DF042091DE0430911905E5
:104120004091180557E02E1301C008956E2F70E0DE
:104130005E9FF0011124DF01A052BB4F14968C91B9
:104140001497882361F111968C911197831327C0DE
:104150008C91841324C015968C91159781111FC0E2
:1041600012968D919C91A0911A05B0911B058A1B06
:104170009B0B883C910598F480911E058F7080619F
:1041800080931E05EA51FB4F80818F708061808390
:1041900088E195E00E94A41A0E9477040895FB012B
:1041A0003196E770C0CFADE0B0E0E9EDF0E20C94FD
:1041B0000E2E8C0186E0F801DE01189601900D921A
:1041C0008A95E1F7D8019C911596DC901597129687
:1041D000AD90BC90139714968C91149728E1822E81
:1041E00025E0922E70901C05711018C0882399F05C
:1041F000DD2009F461C1C8010E947010882309F410
:104200005BC187E0F801A8E1B5E001900D928A95C5
:10421000E1F70E948220FF24F39433C0E0901D0553
:1042200020911A0530911B05F501E21BF30BEE20DE
:1042300009F412C1E83CF10508F0D5C0882359F310
:104240002091190511968C91C0901E05BFE0BC15F8
:1042500008F494C0FD2C821319C02091180529136D
:1042600015C0D11085C08C2D8F70806180931E0584
:1042700088E195E00E94A41A80911E05F8018683CA
:10428000F12C8F2D2D96EDE00C942A2ED11070C0BC
:10429000E091DF042091DE04AE2F37E0A21317C0B7
:1042A00037E02E1337C0888599850E946110292F29
:1042B00022952F70903408F441C02A5F2F7022306D
:1042C00008F450C0C8010E94A41AFE2CDACF4A2F6D
:1042D00050E03A9FD0011124A052BB4F11966C912F
:1042E0001197861307C06C91961304C015966C91B4
:1042F000611104C0DA011196A770D0CF88E195E072
:104300000E94A41A87E0E8E1F5E0DF011D928A959A
:10431000E9F7B6CF4E2F50E03E9FF0011124E05256
:10432000FB4F6181861306C06081961303C06581CF
:104330006111A6CFFA013196E770B3CF9F7022309A
:1043400038F0992351F0F8019681903130F499CFEB
:10435000992319F0882309F494CF805E883008F4FB
:1043600090CFB0CF803F08F48CCF815F8230F7CF01
:1043700080911E05816080931E0582CF821315C037
:1043800080911805891311C0D1100FC0D80116965D
:10439000CC92C8010E94A41A87E0F801A8E1B5E018
:1043A00001900D928A95E1F736CFC8010E947010F6
:1043B000882309F481C0DD2009F47EC080911E05A8
:1043C000803208F41ECF80911805909119059A83C8
:1043D0008983BC82AB827D821E82CF82CE01019610
:1043E0000E94A41A0ECFF0901E05BFE0BF1508F082
:1043F00085CF882309F40FCF20911905F801818119
:10440000281310C08091180589130CC0D1100AC060
:10441000F682C8010E94A41A87E0D4011D928A95F1
:10442000E9F7F9CEC8010E947010882309F444C04E
:10443000DD2009F441C080911E05803208F4E1CEF0
:1044400080911805909119059A838983BC82AB826B
:104450007D821E82FF82C2CFE83CF10588F5882369
:1044600009F4D9CEDD2041F120911905F8018181AF
:10447000281318C080911805891314C080911E0557
:1044800080FD8ACF803108F487CF8683807F803F8C
:1044900009F47FCF8681982F907F905F8F70892B52
:1044A000868377CFC8010E9470108111AACE8091B7
:1044B0001E05816080931E05C8010E94A41AABCE20
:1044C00087E0D40123CFABE1B0E0E9E6F2E20C945F
:1044D000182E4E8B5F8B688F798F8A8F9B8F9111EF
:1044E0001092DD041D8A86E0FE017696DE011F969D
:1044F00001900D928A95E1F78B89882329F061E07C
:10450000CE010F960E94411087E0FE013F96DE012A
:10451000189601900D928A95E1F7CE0108960E94B7
:10452000D32081112BC087E0FE013896DE01119661
:1045300001900D928A95E1F72091DE044091DF040D
:104540008C858823D9F030E0C901019687709927BE
:1045500050E084179507E9F097E0929FD001939F70
:10456000B00D1124A052BB4FFE01319601900D9267
:104570009A95E1F78093DE040E94770417E080911A
:10458000DF049091DE04891312C06B96E3E00C9473
:10459000342E0E94EB101092DE041092DF0487E0AC
:1045A000E8E1F5E0DF011D928A95E9F7E7CF189F72
:1045B000C001112480529B4F0E94D320882329F3ED
:1045C0008091DF0490E00196877099278093DF0443
:1045D000D6CFA6E0B0E0EFEEF2E20C94172E0E94E8
:1045E000690B8C0180918A0490918B04801791074C
:1045F00079F019821A820E94690BBC0149815A81A3
:1046000080E090E00E94632210938B0400938A0460
:104610002696E4E00C94332EABE1B0E0E2E1F3E265
:104620000C940C2E1A821982FE0133968AE0DF0167
:104630001D928A95E9F78AE8E82E81E0F82E8E012E
:104640000F5F1F4F90E9C92E91E0D92E3801AA249F
:10465000A394B12C38E9832E31E0932EF701819198
:104660007F018F3F09F441C0F894E82FE295EF7085
:10467000F0E021A18F70A50102C0440F551F8A955B
:10468000E2F7CA01922F982B91A392A180958923DA
:1046900082A3789400C0E0E9F1E031E0512C21914F
:1046A0002F3F09F49AC0A22FA295AF70A05EB0E090
:1046B0008C9190E02F7002C0959587952A95E2F72E
:1046C000817081118AC0832F582A330F8E169F065E
:1046D00031F7F701319780818F3F11F00E94AF06CB
:1046E00050EA5A95F1F7D8015C920F5F1F4FCE1434
:1046F000DF0409F0B3CF4CE050E0B30183E194E074
:104700000E943D2F0091200410E00F5B1B4F892B6E
:1047100009F465C08CE0F301A3E1B4E001900D92CF
:104720008A95E1F781E08093E3010E94690B909301
:10473000E2018093E10180918804882309F4A7C0F5
:104740001E861D86FE013F9684E0DF011D928A953C
:10475000E9F78091E6018A3008F063C07E01BDE090
:10476000EB0EF11C49EA58E1B701C8010E94E40EC2
:104770006701882309F479C04FE558E1B701C80102
:104780000E94E40E882309F470C04DEB57E1B70195
:10479000C8010E94E40E882309F467C04DE758E180
:1047A000B701C8010E94E40E882309F45EC010928C
:1047B000E60180911F0490E046E050E0B6018F5B77
:1047C0009B4F0E943D2F21E02093E001892B09F0AF
:1047D0003FC06B96EFE00C94282E80E075CF80915F
:1047E000E301882309F4A7CF8091E1019091E201D0
:1047F0000E94BD0C059708F49ECF46E050E063E1AF
:1048000074E0C8010E943D2F892B41F086E0E3E16E
:10481000F4E0D80101900D928A95E1F71092E3013E
:104820008ACF8091DE019091DF010E94BD0C843F10
:10483000914008F093CF8091E001882351F2FE016E
:104840003D9686E0DF011D928A95E9F71092E0011E
:10485000A0911F04B0E0AF5BBB4F86E0FE013D9628
:1048600001900D928A95E1F7B4CF8091E6018F3FD8
:1048700039F40E94690B9093DF018093DE01DBCF56
:104880008F5F8093E6018A3008F493CFF2CFE090F7
:104890001F04F12CF701EF5BFB4F7F0186E0F8016D
:1048A000A9E6B4E001900D928A95E1F789E694E0DB
:1048B0000E94A90D8093680486E0EFE6F4E0D7013A
:1048C00001900D928A95E1F7C0907504D09076041E
:1048D000E0907704F09078048091DA019091DB0108
:1048E000A091DC01B091DD01C816D906EA06FB06ED
:1048F000B1F0C092DA01D092DB01E092DC01F092DB
:10490000DD010E94620CC61AD70AE80AF90AC092B1
:104910008404D0928504E0928604F09287048BE0B0
:10492000E9E7F4E0DE011D9601900D928A95E1F72A
:104930008091790486958695F0907A04E0907B04C6
:10494000D0907C040091820410918304109283041F
:10495000112309F43ECF10FF0BC09D8590FF1CC0B2
:104960009091CD0491609093CD0460E00E94211A53
:1049700011FF06C020E04D2D6E2D8F2D0E94831457
:1049800012FF04C0002359F00E94051A13FF21CF23
:1049900081E0809339041DCF0E94D707E9CF0E94A0
:1049A000D007F4CFCDB7DEB7A4970FB6F894DEBF2B
:1049B0000FBECDBF85B7806885BF85B7806885BFCE
:1049C00084B7877F84BF0FB6F894A8958091600064
:1049D000886180936000109260000FBE80E890E0D4
:1049E0000FB6F89480936100909361000FBE8DEA3A
:1049F00096E09093D1018093D0010E948A0D0E948D
:104A0000F90D8091E20084608093E20078948091B7
:104A10004D04882399F08091E9001091EC001795DE
:104A2000112717958F70182B1092E9008091E800DC
:104A300083FD0E9428111F701093E90082E084BD5D
:104A400093E095BD9AEF97BD80936E001092840419
:104A50001092850410928604109287040E9496108A
:104A6000811102C00E94C90F8AEF90E02091E300FB
:104A700027FD97C5AFE3BCE91197F1F700C000002F
:104A80000197009799F70E948A0D10924D04109299
:104A90008804109289041092180181E28093130116
:104AA00080931401809118018091180190E0811188
:104AB00001C096E09093200486E0891B80931F0438
:104AC0000AE811E090E9E92E91E0F92EF8018191D0
:104AD0008F018F3F11F00E94AF06E016F106B1F78B
:104AE00000E911E0D8018D918D018F3F11F00E94F6
:104AF000AF06B1E008391B07A9F78CE0E1E4F4E068
:104B0000DF01282F1D922A95E9F7E3E1F4E0DF01A8
:104B10001D928A95E9F780E090E00E94612F853E22
:104B20009E4F21F40E949610811102C00E945F15D1
:104B300082E090E00E94532F8093260484E090E06E
:104B40000E94612F9093DC048093DB040E940C236D
:104B5000EFEFF6E721E0E150F0402040E1F700C040
:104B600000000E940C238091410480FF08C06FEF79
:104B70007FEF80E090E00E94952F0E94CC0C83E0B4
:104B800090E00E94532F0E94CD0380912104811157
:104B90009DC088E090E00E945B2F6B017C0183E266
:104BA00090E00E94532F282F30E040E050E060E07A
:104BB00070E080E090E000E20E949E2EF22FA32E93
:104BC000B42EB52FA62FE72F9701860140E050E0C5
:104BD000BA01FC29A12AB22AB32BA42BE52B862BE0
:104BE000972BF093CD04A092CE04B092CF04B09353
:104BF000D004A093D104E093D2048093D304909383
:104C0000D4042091CC0423602093CC04F43008F029
:104C10004BC025E02093CD041092CE042FEF2093BB
:104C2000CF042093D0041092D10425E030E04FEF60
:104C30005FEF60E07E2F0E94291488E090E00E94E0
:104C40005B2F6B017C0183E290E00E94532F282FA1
:104C500030E040E050E060E070E080E090E000E2B2
:104C60000E949E2E5901B42FA52FF62FE72F9701F2
:104C7000860140E050E0BA01AC28B12AB22BA32B48
:104C8000F42BE52B862B972BA092CD04B092CE046B
:104C9000B093CF04A093D004F093D104E093D20456
:104CA0008093D3049093D4040E9455070E94D007A8
:104CB0000E944F0A8091CD0480FF05C060E0869578
:104CC00086950E94211A81E08093210480918804B6
:104CD000811102C00E94A92C89E191E090938D047A
:104CE00080938C0418E1412E512C0DE4A02E04E099
:104CF000B02EDD24D39483E3682E84E0782E809157
:104D00004D0410E4853009F48DC00E940C2307E2A5
:104D100014E0B1E4EB2EB4E0FB2ED701F801919141
:104D20008D916E167F0609F490C09817C1F390918B
:104D3000880499A3912CD7018D907D01F8012190D1
:104D40008F01281449F12824C12C33243394822D57
:104D500083218823C9F0F9A1FF23B1F0C9829A8287
:104D60000E94690B9C838B8321E02D8391E0882D29
:104D70008321811101C090E09E8349815A816B811A
:104D80007C818D810E946322C394330C68E0C6123B
:104D9000DECFF8013197808293948CE09812CBCFCC
:104DA0000E947F0C56C080914D04843009F430C0BD
:104DB0000E94D00780912404811109C0D09224045C
:104DC0008091CD048170809323040E94D7071092B4
:104DD00022040FB6F894A895409260000FBE10937D
:104DE000600083B7817F846083BF83B7816083BFA6
:104DF0007894889583B78E7F83BF0FB6F894A89573
:104E000080916000886180936000109260000FBE06
:104E10000E940C23E1E4F4E081918111A5C3AE1658
:104E2000BF06D1F780914D04853009F4BCCF0E94B4
:104E3000EB100E94E30A1092240480912304811154
:104E40000E94881A0E94051A60CF981370CF0E94A2
:104E5000E9228091CB04882309F465C08091CA04BB
:104E6000E091CD04E695E695E81BE09338048230A6
:104E700009F0E2C0F0E0E855F94FE4910E2F10E0A0
:104E8000A6EEEA2EA7E0FA2E80913904882361F07D
:104E9000109239040E94B20C909337048093360428
:104EA00010923B0410923A040E94B20C9C01809133
:104EB000360490913704A901481B590B4F3F5F47B7
:104EC00090F5409135044423B1F01092350440919F
:104ED000330450913404241B350B2F3F3F4758F4C3
:104EE000405D5A4850933404409333042091CC04DD
:104EF00028602093CC0480903A0490903B04800F6B
:104F0000911F909337048093360486E394E0F70171
:104F1000099580913A0490913B04892B21F48928CA
:104F200011F0D092350486E0E2ECF4E0DE01119657
:104F300001900D928A95E1F7F090C3040091C404AA
:104F40001091C504C090C604E090C7041092C40438
:104F50001092C5041092C6041092C704812F802BB2
:104F6000882399F080913E0490913F040E94BD0CEB
:104F70009C018091C004882309F4CEC040914F0168
:104F800050E04217530708F4D5C08C2D8E29882392
:104F900071F080913C0490913D040E94BD0C9C01F5
:104FA0008091BF048111FEC0232B09F001C18091C3
:104FB000C3048F1116C08091C404882311F080139C
:104FC00010C09091C504992311F091130AC020914B
:104FD000C704211106C02091C604211102C0892BEB
:104FE00081110E94750B86E0FE013196A2ECB4E0BF
:104FF00001900D928A95E1F70E94E30A9091400496
:10500000891721F0809340040E94620C80914D0426
:10501000843009F074CE83E08093E9008091E80049
:1050200082FF6DCE8091E80085FDFBC08091E80095
:105030008B778093E80063CE08E210E02CE3E22E49
:1050400029E0F22E883109F41FCFE8F48F3009F4FB
:1050500047C060F4863069F1893009F435C000ED4D
:1050600017E0F8ECEF2EF6E0FF2E0ECF8531B9F702
:10507000F0E0E456F94FE4910E2F10E05CEBE52EE2
:1050800058E0F52E01CF04EF11E09AE0E92E9AE006
:10509000F92E843209F4F8CE853271F18332F9F6B3
:1050A000EAE9F6E00591149140EDE42E49E0F42E92
:1050B000EBCEF0E0EB55F94FE4910E2F10E0E0EC71
:1050C000EE2EE7E0FE2EE0CEE695F0E0EE55F94F4D
:1050D000E4910E2F10E07AEFE72E77E0F72ED4CE92
:1050E000E695F0E0E156F94FE4910E2F10E065E30C
:1050F000E62E68E0F62EC8CE8E2F63E00E94402E8A
:10510000E92FF0E0E956F94FE4910E2F10E03BE370
:10511000E32E39E1F32EB8CE4091BA04FAE04F9F66
:10512000A00111244217530708F02FCF8F5F8093FF
:10513000C00402C08F3FD1F7002359F00E945F0ADC
:105140009FEF10160CF491E0899F802D112480931D
:10515000C404112359F00E945F0A91E011160CF06B
:105160009FEF899F802D11248093C5048091C404F2
:10517000882309F40ACF9090C504992009F405CF3B
:105180000E94510A811101C081E08093C404892DDD
:105190000E94510A882319F08093C504F6CED0925C
:1051A000C504F3CE2135310508F401CF8F3F19F046
:1051B0008F5F8093BF04CC2059F00E94A70A9FEF15
:1051C0001C140CF491E0899F802D11248093C60457
:1051D000EE2059F00E94A70A91E01E140CF09FEFF8
:1051E000899F802D11248093C7048091C604882351
:1051F00009F4DDCEE090C704EE2009F4D8CE0E9479
:10520000510A811101C081E08093C6048E2D0E9455
:10521000510A882319F08093C704C9CED092C704DD
:10522000C6CE0E94590D882379F08091E8008B77D3
:105230008093E8008981EFEFE80FE33190F5F0E02B
:10524000E356FF4C0C94822E80E2E82EF12C8E0166
:105250000F5F1F4F8091E80085FD0AC08091E80034
:105260008B778093E8000E94590D882399F3DDCF56
:105270008091F100D8018C93B1E0EB1AF108E114B0
:10528000F10499F20F5F1F4FE5CF1A828CE08B83F8
:105290001AC08A81833049F138F4813061F082305C
:1052A000D9F08FEF89830FC08430D9F71B821C821D
:1052B0001D821E8208C00E94620C0E94882E6B8391
:1052C0007C838D839E8340E250E0BE016F5F7F4F01
:1052D00082E00E94810E13CD87E290E00E94532F5E
:1052E0001B821C821D828E83EECF8B8190E0DE01BB
:1052F00014968C3091053CF7FC01FF27EF5BFB4FC8
:1053000020812D930196F5CF8A81823049F0853036
:1053100041F68091CD0480FF14C00E94D707D3CFFF
:105320008B819C81AD81BE8189A39AA3ABA3BCA3D1
:10533000BC01CD010E94882E87E290E00E94772F69
:10534000C2CF0E94881ABFCF4C816B818A810E9494
:10535000D90F9827892798279E838D83B4CF2D81D5
:105360003E813227232732274C816B818A810E941C
:10537000350FA9CF0E945C0FA6CF9A81923009F019
:1053800090CF883069F1893009F44DC08B8183302A
:1053900019F180F48130B9F0823009F094CF8C811A
:1053A000882309F4BACF0E94881A60E08C810E9499
:1053B000211A89CF843009F086CF20E04091D004B3
:1053C0006D818C8106C020E04C816091CF0480917A
:1053D000CE040E94831477CF8C818093D10473CF45
:1053E0008B818330E9F060F48130A1F0823009F0E4
:1053F0006ACF8091CD0480FF11C0869586950CC040
:10540000843009F060CF8091CE048C838091CF04EA
:105410008D8359CF8091D0048C8355CF80E0FCCF11
:105420008091D104F9CF2091CD043091CE044091E8
:10543000CF045091D0046091D1047091D204809136
:10544000D3049091D4040E9429143DCF80E18A8333
:105450003ACF1A8288ED1BCF8A809B8098248924BA
:1054600098248C817401E80EF11C8E010B5F1F4F94
:105470008E149F0409F427CF80E098ED89169104DB
:1054800028F4C401885D9C4F0E94532FD8018D934E
:105490008D01BFEF8B1A9B0AEBCF0A811B8110276E
:1054A00001271027FE0131964F018C817F01E80E04
:1054B000F11C8E149F0409F406CF083D110540F439
:1054C000D40114966C91C801885D9C4F0E94772F7F
:1054D0000F5F1F4FBFEF8B1A9B0AEBCF0E949B0FF2
:1054E000F2CE84E0B4CF8A809B80982489249824CB
:1054F0008C817401E80EF11C8E010B5F1F4F8E141E
:105500009F0409F4E0CE80E08114E3E09E0620F4DD
:10551000C40188960E94532FD8018D938D01BFEF4F
:105520008B1A9B0AECCF0A811B81102701271027B9
:10553000FE0131964F018C817F01E80EF11C8E1423
:105540009F0409F4C0CE0115F3E01F0738F4D4011D
:1055500014966C91C80188960E94772F0F5F1F4F99
:10556000BFEF8B1A9B0AEBCF80912504882309F4A7
:1055700059CC60E169BD82E189BD09B400FEFDCF6F
:105580008091D8008F7D8093D8008091E000826068
:105590008093E0008091E00081FDFCCF0E94EB1041
:1055A00041CC81E080938804809389048093180122
:1055B0001092130181E2809314010E94A62C72CAFA
:1055C0001F921FB61F9211248F939F93AF93BF9387
:1055D00080912204811113C080916404909165042C
:1055E000A0916604B09167044196A11DB11D8093FE
:1055F000640490936504A0936604B0936704BF911C
:10560000AF919F918F911F901FBE1F901895789416
:105610001F921FB61F9211248F939F93AF93BF9336
:105620008091640490916504A0916604B091670430
:105630000196A11DB11D8093640490936504A0930D
:105640006604B0936704BF91AF919F918F911F90B3
:105650001FBE1F9018951F920F920FB60F92112424
:105660002F933F934F935F936F937F938F939F936A
:10567000AF93BF93EF93FF938091E10082FF09C046
:105680008091E20082FF05C08091E1008B7F8093D2
:10569000E1008091DA0080FF24C08091D80080FF73
:1056A00020C08091DA008E7F8093DA008091D9004B
:1056B00080FF9BC080E189BD82E189BD09B400FE05
:1056C000FDCF81E080934D048091EA01811109C0F2
:1056D0000E948A0D0E94F90D8091E20084608093FF
:1056E000E2008091E10080FF17C08091E20080FF1E
:1056F00013C08091E2008E7F8093E2008091E200EF
:1057000080618093E2008091D80080628093D8000D
:1057100019BC85E080934D048091E10084FF29C08D
:105720008091E20084FF25C080E189BD82E189BDCE
:1057300009B400FEFDCF8091D8008F7D8093D80002
:105740008091E1008F7E8093E1008091E2008F7E66
:105750008093E2008091E20081608093E20080917A
:10576000E901882309F447C084E080934D048091C7
:105770004D048091E10083FF27C08091E20083FF08
:1057800023C08091E100877F8093E10082E08093D5
:105790004D041092E9018091E1008E7F8093E10039
:1057A0008091E2008E7F8093E2008091E200806130
:1057B0008093E20042E060E080E00E94C20D8091B0
:1057C000F00088608093F000FF91EF91BF91AF915E
:1057D0009F918F917F916F915F914F913F912F9109
:1057E0000F900FBE0F901F90189519BC10924D048A
:1057F0001092EA0176CF8091E30087FF02C083E038
:10580000B4CF81E0B2CF1F920F920FB60F92112446
:10581000FF920F931F932F933F934F935F936F9339
:105820007F938F939F93AF93BF93CF93DF93EF9328
:10583000FF9309EE10E0F8018081C091EC00C7955C
:10584000CC27C7958F70FC2EF82A1082C0EFD0E0CD
:105850008881877F888378940E942811F8011082BC
:10586000888188608883CF2DCF70C083FF91EF91AE
:10587000DF91CF91BF91AF919F918F917F916F9168
:105880005F914F913F912F911F910F91FF900F903A
:105890000FBE0F901F9018958EE1489B03C081505A
:1058A0008111FBCF489BFECF0895589880E28A95DE
:1058B000F1F7589A0895FC012BE02A95F1F728E0BA
:1058C00090E080E031E040E14A95F1F7880F489B95
:1058D00002C08160932742E04A95F1F7000040E161
:1058E0004A95F1F721502111EECF20E12A95F1F7E9
:1058F00029B132E03A95F1F7000040E14A95F1F71D
:10590000217092272081920F90830895A1E0B0E04A
:10591000ECE8FCE20C94152E19828C017C01E60E59
:10592000F11C0E151F0541F481E09981911180E071
:105930002196E6E00C94312E0E944C2CCE0101966B
:105940000E945B2CF80181938F01EBCF509A589AFB
:1059500008955098589AE89AE9E6F0E080818C7FA3
:10596000808308956150770B91E001C0990F6A958B
:10597000EAF7692F90E021E0611108C0992399F0BE
:10598000589A80E28A95F1F758980895362F38236F
:10599000332339F0589A922730E23A95F1F7669519
:1059A000EBCF5898F9CF5898ECCFFF920F931F93F5
:1059B000CF93DF93EC018C01060F111DC017D107A7
:1059C00029F4CDB7DEB7E5E00C94322EF9900E94B1
:1059D000552C68E08F2D0E94B22CF0CF1F920F92B1
:1059E0000FB60F9211240F931F932F933F934F9352
:1059F0005F936F937F938F939F93AF93BF93EF9337
:105A0000FF93CF93DF930F92CDB7DEB719820E9439
:105A10004C2CCE0101960E945B2C082F0695069512
:105A20000695982F92959570202F2570920F292F0B
:105A3000237096959695920F982797708981892B58
:105A400081115CC0063008F059C080E18A95F1F7F9
:105A5000589A509A82E08A95F1F700C0589888E0E9
:105A6000089F80011124D801AD5DBE4F1696ED91BF
:105A7000FC9117973097A9F0609198017091990166
:105A800014962D913C911597260F371F11968D91E5
:105A90009C911297680F791F13964C9113978C91D4
:105AA0000995F801ED5DFE4F6381662351F0209169
:105AB00098013091990184819581820F931F0E94F2
:105AC000D52C0E94552C80E18A95F1F75898509872
:105AD000589A80E18A95F1F7F801ED5DFE4F6081FB
