:100000000C94A8020C941F210C94C5020C94C502F8
:100010000C94C5020C94C5020C94C5020C94C50244
:100020000C94C5020C94C5020C945C1F0C943420F3
:100030000C94111F0C94C5020C94C5020C94C502BB
:100040000C94C5020C94C5020C94C5020C94C50214
:100050000C94C5020C94381F0C94C5020C94C50274
:100060000C94C5020C94C5020C94C5020C94C502F4
:100070000C94C5020C94C5020C94C5020C94C502E4
:100080000C94C5020C94C5020C94C5020C94C502D4
:100090000C94C5020C94C5020C94C5020C94C502C4
:1000A0000C94C5020C94C5020C94C502050109020A
:1000B000A10185020901A1000509190129081500FE
:1000C0002501950875018102050109300931158165
:1000D000257F95027508810609381581257F9501D0
:1000E00075088106050C0A38021581257F95017572
:1000F000088106C0C005010980A101850319012AF4
:10010000B700150126B700950175108100C0050CD8
:100110000901A101850419012AA002150126A002E6
:10012000950175108100C005010906A10105071997
:10013000E029E715002501950875018102950175F3
:100140000881010507190029FF150026FF00950603
:100150007508810005081901290515002501950577
:1001600075019102950175039101C009023B0002DE
:100170000100A0FA09040000010301010009211196
:100180000100012244000705810308000109040160
:10019000000103000000092111010001227B00077A
:1001A000058203200001120100020000000849033B
:1001B00055000100010200013203440061006300A8
:1001C000740079006C002D004D0061006E00750018
:1001D00066006F0072006D00200028003500780076
:1001E00037005F0043004300290000001E036D003C
:1001F0007900620065007300740066007200690097
:1002000065006E0064006D006500000004030904D1
:1002100000010101010101010101020202020202C9
:10022000020202030303030303030304040404049C
:100230000404050505050506060606060707070763
:100240000708080808090909090A0A0A0B0B0B0C18
:100250000C0C0D0D0D0E0E0E0F0F0F1010111111B5
:100260001212131314141515161617171818191936
:100270001A1A1B1B1C1D1D1E1E1F2020212222239B
:100280002424252626272829292A2B2C2D2D2E2FDC
:1002900030313232333435363738393A3B3C3D3EF3
:1002A0003F404142434445464748494A4C4D4E4FE2
:1002B00050515354555658595A5B5D5E5F616264A4
:1002C000656668696B6C6D6F7072737577787A7B31
:1002D0007D7E8082838587888A8C8E8F9193959688
:1002E000989A9C9EA0A2A3A5A7A9ABADAFB1B3B5A8
:1002F000B7BABCBEC0C2C4C6C9CBCDCFD1D4D6D884
:10030000DBDDDFE2E4E7E9EBEEF0F3F5F8FAFDFF21
:100310002E001E001F00200021002200615200005C
:10032000390014001A000800150017007B000000B7
:10033000E00004001600070009000A00B2000000F7
:1003400029001D001B00060019000500E100E00067
:100350004900E00050004F00E200000000004A00A9
:10036000000000000000000000004C002A004D00CA
:1003700000006252230024002500260027002D00E3
:1003800000007C001C0018000C001200130031005B
:1003900000007D000B000D000E000F003300340044
:1003A000E700E50011001000360037003800E500D6
:1003B0004B00000000006500520051002F0030008B
:1003C0004E002C002800000000000000000000008B
:1003D00001003A003B003C003D003E003F000000B1
:1003E00001000100010052000100010001000000B5
:1003F00001000100500051004F000100007C00008E
:1004000001000100010001000100010001000100E4
:10041000AD00AE00AC00AB00010000000000010028
:1004200000000000000000000000010001000100C9
:10043000000040004100420043004400450001002C
:1004400000000100010001000100010001000100A5
:100450000000010001000100010001000100010095
:100460004C00010001000100010001000100010039
:100470000100000000000100010001000100010076
:100480000100010001000000000000000000000069
:100490000100010001000100010001000100000055
:1004A0000100010001000100010001000100000045
:1004B0000100010001000100010001000100000035
:1004C0000100010001000100010001000100010024
:1004D0000100010001000100010000000000010016
:1004E0000000000000000000000001000100010009
:1004F00000000100010053000100560057000100F8
:100500000000010001005F006000610001000100C7
:100510000000010001005C005D005E00550001006C
:1005200001005800010059005A005B00540001000E
:1005300001000000000001006200630001000100F2
:1005400001000100010000000000000000000000A8
:1005500011241FBECFEFDAE0DEBFCDBF11E0A0E077
:10056000B1E0E4EAF7E402C005900D92A037B107CC
:10057000D9F722E0A0E7B1E001C01D92A63FB20783
:10058000E1F70E94CC1B0C9443230C940000909341
:10059000AE028093AD0208959093B0028093AF02B3
:1005A000089521E030E002C0220F331F8A95E2F760
:1005B0008091AF029091B002822B932B0E94CC02CB
:1005C000089521E030E002C0220F331F8A95E2F740
:1005D000209530958091AF029091B00282239323B1
:1005E0000E94CC0208959C3080F5883070F528E098
:1005F000929FF0011124E80FF11D877041E001C0C6
:10060000440F8A95EAF783E0F695E7958A95E1F736
:10061000EE0FFF1FEE0FFF1FEE59FD4F80E090E041
:1006200070E05191DF0111979B01082E02C03695B1
:1006300027950A94E2F72170219525272423252761
:100640002C9301968430910561F708959C3070F5E4
:10065000883060F528E0929FF0011124E80FF11D29
:10066000982F977083E0F695E7958A95E1F7EE0F5E
:10067000FF1FEE0FFF1FEE59FD4F40E050E080E0FE
:10068000219130E0092E02C0369527950A94E2F7B1
:1006900021703327042E01C0220F0A94EAF7822B1F
:1006A0004F5F5F4F4430510559F7089580E008953A
:1006B0008091B6029091B502981301C008958F5FA2
:1006C0008770FACF9091B102809589238093B1020F
:1006D000282F277021110DC0891759F09091B3026E
:1006E00092FF07C08695869586950E94E10210923A
:1006F000B1020895982F90958091AA028923809342
:10070000AA0208957C30C8F46830B8F48330C0F48D
:10071000E72FF0E09CE0899FE00DF11D112483E0BC
:10072000EE0FFF1F8A95E1F7E60FF11DEE0FFF1F99
:10073000E05FFC4F85919491089580E090E00895EA
:1007400081E0FCCF803E9105D1F1C8F48133910561
:1007500009F47FC048F48932910509F46FC08A32E8
:10076000910509F47DC0089589339105E1F082383F
:100770009105C9F08533910509F45BC00895843E65
:100780009105D1F148F4823E910531F1833E910506
:1007900041F181EE90E00895863E9105C1F1873EDA
:1007A0009105E1F108952091B2022370211165C0F5
:1007B0002091B30223FF14C089E290E008952091B4
:1007C000B20220FD43C03091B30230FF09C024FFC4
:1007D0004EC080E090E008952091B20222FDF7CF54
:1007E00008952091B20222FD45C03091B30230FD40
:1007F00044C024FFF5CFEDCF2091B30221FFF0CF0D
:100800008091B20284FDE5CF87EE90E008952091BB
:10081000B20223FFE5CF24FDDCCFF6CF2091B20258
:1008200023FD2EC03091B30231FFE3CF84EE90E080
:1008300008952091B20225FFD3CFBECF2091B202FE
:1008400025FD21C02091B30223FFCACF89E390E0A8
:1008500008952091B20226FFC3CF8AE290E0089566
:100860002091B20226FFBCCF81E390E0089583EE91
:1008700090E0089582EE90E0089580EE90E0089573
:1008800086EE90E0089585E390E0AACF9091B202C1
:1008900092FF10C041E0282F2471243009F040E07D
:1008A00031E0282F2871283009F030E0431711F08B
:1008B0002CE0822793FF10C041E0282F24712431BF
:1008C00009F040E031E0282F2871283109F030E0AC
:1008D000431711F02CE082273091B30230FF10C093
:1008E00051E0282F2171213009F050E041E0282FFC
:1008F0002871283009F040E0541711F029E08227D0
:1009000031FF10C041E0282F2171213109F040E072
:1009100031E0282F2871283109F030E0431711F019
:1009200029E0822794FD877E08951F93CF93DF935C
:100930000E94A203EC01811522E5920708F053C042
:10094000811540E5940708F0DDC0803E9105F8F47C
:100950008D3C910508F0AEC0883A910580F4853A47
:10096000910508F099C08130910521F00497813AF2
:10097000910550F4CE01DF91CF911F910895885ACF
:1009800091094B9708F48BC0C0E0D0E0F3CF8115FC
:1009900050E49507F8F4C11580E2D80708F0CBC001
:1009A000C83ED10538F3CE019A9581159F4160F775
:1009B0008D2F0E944604182FCE0199270E94A20372
:1009C000212F30E0322F2227E901CC27DF71C82BFD
:1009D000D92BD0CF99270E94A203CC27DF70C82B38
:1009E000D92BD06AC7CF803842E59407C8F5803646
:1009F00052E5950708F067C0C03482E5D807B0F02B
:100A00008C2F86958695877020E2829FC0011124E5
:100A1000C37021E030E0A90102C0440F551FCA9500
:100A2000E2F7EA01C82BD92BDC68A4CFC03252E52B
:100A3000D50708F041C08C2F8695869520E2829FCD
:100A4000C0011124C37021E030E0A90102C0440FAD
:100A5000551FCA95E2F7EA01C82BD92BDD688ACF6A
:100A6000803C52E5950760F48F71C03AD24508F09A
:100A70003FC090E0982F8827EC01C46FD06A7ACFEE
:100A8000805C9245809708F07FCFDC2FCC27CC2765
:100A9000DF71C06FD06A6ECFA497D0646BCFC85A95
:100AA000D0E0CC0FDD1FC75CDE4F0990D881C02D90
:100AB000D46460CFD0655ECFCF71D0E0DC2FCC277F
:100AC000C16FD06A57CF86958695877020E2829F46
:100AD000C0011124C37021E030E0A90102C0440F1D
:100AE000551FCA95E2F7EA01C82BD92BDA6842CF25
:100AF0000E944604C82FD0E0DC2FCC27CC27DF7122
:100B0000D06238CF8F710E94460465E0D695C795B4
:100B10006A95E1F7CF70D0E0DC2FCC27282F30E0AA
:100B200084FF05C054E0220F331F5A95E1F7C22B12
:100B3000D32BD0691FCF8D2F8F710E944604182FA1
:100B4000CE0199270E94A203212F30E0322F2227C5
:100B500022273F71282B392BE901D2CFA0E0B0E04A
:100B6000E4EBF5E00C9443228C01E090AF02F090AE
:100B7000B0028091AD029091AE02E82AF92ACFE04E
:100B8000D0E0CC24C394D12CC6010C2E02C0880F17
:100B9000991F0A94E2F78E219F21892B49F421970E
:100BA00098F7B12C8B2DCDB7DEB7E9E00C945F221E
:100BB000BC2EB8018C2F0E9482030E9495040197DD
:100BC00071F3F0CF0F931F93CF93FC0185810081C8
:100BD0001181882391F0662381F0C8010E94AE053F
:100BE000C82F682FC8010E94F302B8018C2F0E9401
:100BF0008203CF911F910F910895C8010E9426038F
:100C0000C82FF3CFCF93DF93D82FC92F0E94AE0503
:100C10006D2F7C2F0E9482030E949504DF91CF915B
:100C20000895FC0184818823A1F0808191810E9434
:100C30000206282F92959F70963091F060F4925F93
:100C40009F70923030F481E0203F79F030F4283EFC
:100C500030F080E004C09A5FF3CF243FD1F70895CD
:100C600081E0283E18F0213FF9CF0895089580E0F3
:100C70000895F894E82FE295EF70F0E041A18F70AD
:100C800021E030E0B90102C0660F771F8A95E2F7D4
:100C9000CB01962F9095942391A392A1892B82A3A7
:100CA000789408958091A202843038F48091A20251
:100CB000837084608093A20208958830B8F7089505
:100CC0008091A20280FD0AC0E0EAF1E01182108268
:100CD0001282339682E0E330F807C1F761E270E0F8
:100CE00080EA91E00E94760A0895FA01882311F0C3
:100CF00009950895FB01FCCF539A0895282F35EBF1
:100D00002303C001112497FF04C080589109892F43
:100D1000089580589F4FFBCF8091990280FF0DC0AE
:100D20006091270170E0660F771F60387105C0F58C
:100D300061157105B9F1862F089581FF07C0609193
:100D4000270184E0689FB0011124EFCF82FF04C027
:100D50006091270188E0F6CF809198028823E9F01E
:100D6000909126016091270170E0891730F093E09F
:100D7000660F771F9A95E1F7D8CF869F9001879FDE
:100D8000300D112483E0220F331F8A95E1F7692F7C
:100D900070E0C9010E948522C8CF68E070E0CBCF27
:100DA0008FE7089581E008958091990280FF0CC03B
:100DB0006091250170E0759567957595679561154A
:100DC000710561F1862F089581FF06C060912501AC
:100DD00070E075956795F3CF6091250170E082FD15
:100DE00015C0209197022223B1F0909124016091C7
:100DF000250170E0291750F4269FA001279F500D70
:100E00001124692F70E0CA010E94852260387105A3
:100E1000B0F28FE7089561E070E0D4CF81E00895EB
:100E200080915002882359F0E0915802F0915902C4
:100E3000309729F00190F081E02D0995089580E028
:100E40000895A3E0B0E0E7E2F7E00C944A229C01A9
:100E500080919E0190919F0182179307A1F030939A
:100E60009F0120939E01E0915802F0915902309722
:100E700051F083E089833B832A830084F185E02D50
:100E8000CE01019609952396E2E00C946622A3E038
:100E9000B0E0EDE4F7E00C944A229C0180919C01C3
:100EA00090919D0182179307A1F030939D012093AB
:100EB0009C01E0915802F0915902309751F084E082
:100EC00089833B832A830084F185E02DCE0101963E
:100ED00009952396E2E00C9466229C01FC0132966F
:100EE0008FEF90E04191461751F08F3F19F4411177
:100EF00001C0892F9F5F9630A9F78F3F09F40895AD
:100F0000280F311D87FD3A95F901628308959C01F0
:100F1000FC013296285F3F4F8191861303C0DF01A9
:100F200011971C92E217F307B9F708952FB7F894B9
:100F30008091370290913802A0913902B0913A0223
:100F40002FBF08950E94960720919C0230919D0228
:100F5000232B222321F080933002909331022091A1
:100F60009E0230919F02232B222321F080932E0298
:100F700090932F02E0915802F0915902309749F076
:100F800082E080939A020680F781E02D8AE992E060
:100F900009950895662309F44BC0E3E3E80FE331B4
:100FA00050F4F0E0EB5BFC4D0C9499220E948C060F
:100FB000819580939D020E94A20708950E948C064D
:100FC000F8CF0E948C06819580939C02F4CF0E94FA
:100FD0008C06FACF0E94D40680939E02ECCF0E942A
:100FE000D4068195F9CF0E94D406819580939F0203
:100FF000E2CF0E94D406FACF815D990B21E030E068
:1010000001C0220F8A95EAF780919B02822B809380
:101010009B02D1CF80919902816080939902CBCFBE
:10102000809199028260F9CF809199028460F5CF16
:1010300040919C028D3C59F480919D0287FF0DC028
:1010400010929D02442359F41092980208C08E3CDD
:1010500081F480919D0218169CF3442381F08091C5
:101060009E0290919F02892B8111A5CF1092970229
:10107000A2CF8F3C41F447FFF0CF10929C028091A9
:101080009D028823E0CF803D19F41416B4F3E5CF18
:1010900090919E02893D29F41916FCF610929E0249
:1010A000DCCF8A3D19F497FFD8CFF8CF90919F02FB
:1010B0008B3D29F497FFD1CF10929F02CECF8C3D6C
:1010C00019F41916CCF3C9CF9FE2980F983090F419
:1010D000815D990B21E030E0B90102C0660F771FF6
:1010E0008A95E2F7CB01809590919B0289238093AA
:1010F0009B02B3CF8D3D31F4809199028E7F809316
:101100009902ABCF8E3D21F4809199028D7FF7CF6C
:101110008F3D09F0A2CF809199028B7FF0CFA4E0A0
:10112000B0E0E5E9F8E00C944A228FB7F8942091FA
:101130003702309138024091390250913A022983A6
:101140003A834B835C838FBF69817A818B819C81D9
:101150002496E2E00C946622A4E0B0E0E2EBF8E032
:101160000C944A2280915002882371F00E948F08CB
:1011700069837A838B839C8369817A818B819C814B
:101180002496E2E00C9466220E948F0869837A8399
:101190008B839C838091520290915302A0915402C0
:1011A000B091550229813A814B815C81280F391F0A
:1011B0004A1F5B1F29833A834B835C83DDCF9C01ED
:1011C0004FB7F8948091370290913802A09139027C
:1011D000B0913A024FBF821B930B089587E797E7C0
:1011E000909301088093000888E19AE00FB6F89484
:1011F000A895809360000FBE90936000FFCF809110
:101200009B0108950895FC019B01809191019091AB
:1012100092018617970740F0672B29F48091E80028
:101220008E778093E800C90140E0009741F44111B6
:1012300006C08091E80082FF2FC080E008952091D1
:1012400014022223A9F12530A9F12091E80023FD01
:101250002DC02091E80022FDECCF2091E80020FF76
:10126000E4CF3091F3002091F200009719F028307C
:10127000310558F041E02830310509F040E0209177
:10128000E8002E772093E800D0CF41914093F10001
:1012900001972F5F3F4FE9CF80911402882341F0DF
:1012A000853041F08091E80083FFC3CF81E008954D
:1012B00082E0089583E0089580918B0187FF13C039
:1012C0008091E80082FF06C08091E8008B778093D0
:1012D000E80004C0809114028111F2CF089580913A
:1012E00014028823D9F38091E80080FFF8CF809121
:1012F000E8008E77ECCF2091E4003091E50095E690
:10130000A9018091EC008170882331F08091E80080
:1013100080FF06C080E008952091E80022FD1BC0F8
:1013200080911402882391F0853091F08091EB0038
:1013300085FD10C02091E4003091E500421753076D
:1013400001F391509111DCCF84E0089582E008957B
:1013500083E0089581E00895E8EDF0E080818E7FDC
:1013600080831092E2001092DA001092E100A0EE69
:10137000B0E08C9181608C9380818F77808319BCE1
:10138000A7EDB0E08C918E7F8C9380818F7E8083DF
:1013900010928A010895FC01AC014A5F5F4F8FEF04
:1013A00091E32191822728E030E087FF0BC0880F6E
:1013B00089272150310921153105B9F7E417F507BF
:1013C00081F70895880FF5CF982FE42FE27090935E
:1013D000E900891308C0762F242F50E0E11111C0D5
:1013E00091E0980FF4CF7091EC002091ED005091B6
:1013F000F00021FD06C09F5F973049F78093E90018
:1014000008953091EB003E7F3093EB003091ED007A
:101410003D7F3093ED003091EB0031603093EB0075
:101420007093EC002093ED005093F0002091EE00BB
:1014300027FDE1CF0895A0E0B0E0E1E2FAE00C94EE
:101440004422C8EDD0E088818F7E8883E7EDF0E00C
:1014500080818160808384E082BF81E080938A0103
:1014600088818E7F888302EE10E0F801108210924E
:10147000DA0081EEC82ED12CF601108288818F7798
:10148000888388818068888388818F7D888319BC60
:101490001092140210928901109213021092880186
:1014A00090EEE92EF12CF70180818B7F808388817B
:1014B0008160888342E060E080E00E94E409F601F8
:1014C00080818E7F8083F80180818160808380812C
:1014D00088608083F70180818E7F8083888180612E
:1014E0008883CDB7DEB7E8E00C9460229C01AB01A5
:1014F0006BB1677F7BB17860EFB7F894CA01880F52
:10150000991F840F951F820F931F8217930741F431
:10151000EFBF8FE594E00197F1F700C00000089558
:10152000D9014D919D0158E07BB9000000C047FFF3
:101530006BB9440F000000C000C000C06BB900C010
:101540005A9591F7E2CF0F931F93CF93DF93EB015F
:101550008A0190911402943079F58093E9008FEF1D
:101560009091E80095FD07C095ED9A95F1F7000080
:1015700081508111F5CF8091E80085FF1DC00E9448
:101580007B09811114C08091E80085FD06C080911F
:10159000E8008E778093E800F2CF88818093F10095
:1015A000015011090115110511F02196ECCF809120
:1015B000E8008E778093E800DF91CF911F910F9123
:1015C0000895CF93DF93D82FC92F48E050E0682FBC
:1015D000792F81E00E94A30A88E0ED2FFC2FA3E978
:1015E000B1E001900D928A95E1F7DF91CF910895D6
:1015F000BC0146E050E082E00E94A30A0895BC01CD
:1016000043E050E082E00E94A30A0895A0E0B0E029
:10161000ECE0FBE00C944222F82EE92EB62EA72E29
:101620008A0180918601CC24C394D12C8A3018F48D
:101630008AE0C82ED12CC1E0D0E06B2D7A2D8F2D01
:101640009E2DF8010995811116C02196CC16DD0654
:1016500094F0CC9FC001CD9F900D900D112420E0FF
:1016600030E045E34A95F1F700002F5F3F4F281720
:101670003907B9F7E2CFCDB7DEB7EAE00C945E22C6
:101680009091B30292FB222720F9281779F080FB72
:1016900092F99093B3026091B2027091B30284E028
:1016A00090E00E94172382E00E94620308958091D7
:1016B000AA029091B402892B4091AB02442389F095
:1016C00090E024E731E0F90150812F5F3F4F511145
:1016D0009F5F51E02A373507B1F791111092AB02A5
:1016E000842B8093720148E050E06AE572E082E763
:1016F00091E00E942D23892BA9F088E0E2E7F1E038
:10170000AAE5B2E001900D928A95E1F7E0915802C6
:10171000F0915902309731F00280F381E02D82E799
:1017200091E009950895CF931092AA02C6E0E4E7EC
:10173000F1E0DF018C2F1D928A95E9F780E090E0BF
:101740000E94210780E090E00E9447071092B402B7
:101750000E94570BEAE9F2E0DF011D92CA95E9F712
:101760001092980210929702109299020E94A2077A
:10177000CF9108950E94930B2FEF84E39CE02150BA
:1017800080409040E1F700C0000088E19AE00FB689
:10179000F894A895809360000FBE90936000FFCFEF
:1017A000AAE2B0E0E6EDFBE00C9449228BE891E080
:1017B000FC0101962091F100208321E083399207FA
:1017C000B9F780918C01893009F456C0C8F4823091
:1017D00009F4B2C0833009F481C0813071F1809185
:1017E000E80083FFE6C080918B0190918C019A30D4
:1017F00008F0DFC0E92FF0E0E85AFC4D0C94992284
:101800008A3009F488C08B3051F780918B01813286
:1018100031F780918F0190919001892B01F7809190
:10182000E800877F8093E8000E945C0980918D0129
:10183000809300010E94930BD2CF80918B01813A5B
:1018400071F68091E800877F8093E80080918F0196
:1018500090919001892B61F060E080E090E070E071
:101860000E9403098091E8008B778093E800B7CF4E
:1018700068E083E991E0F3CF80918B01813209F038
:10188000AECF80918F0190919001029708F0A7CF81
:101890008091E800877F8093E8008091E80082FFD4
:1018A00018C09091F3008091F200029731F480917A
:1018B000F100813011F0863021F48091F1008093A5
:1018C0009B018091E8008B778093E8000E945C097F
:1018D00086CF809114028111E0CF81CF80918B015E
:1018E000813A09F07CCF80918F0190919001892BF2
:1018F00009F075CF8091E800877F8093E8008091A0
:10190000E80080FFFCCF809100018093F10080917E
:10191000E8008E77D9CF80918B01813209F05FCFBB
:101920008091E800877F8093E8000E945C098091A5
:101930008E018093870153CF80918B01813A09F00A
:101940004ECF8091E800877F8093E8008091E80087
:1019500080FFFCCF80918701D8CF803889F0823812
:1019600041F580918F018F70873018F58093E900E1
:101970008091EB0085FB882780F91092E90006C072
:101980008091880190911302911182609091E800FA
:10199000977F9093E8008093F1001092F10080917E
:1019A000E8008E7723C0811116C080918D018130AF
:1019B00011F18091E80083FF0AC08091E800877FE1
:1019C0008093E8008091EB0080628093EB00AA9600
:1019D000E3E00C946522823061F780918D018823C9
:1019E00089F01092E9008091E800877F8093E800F9
:1019F0000E945C09DECF81E0933009F080E08093A3
:101A00001302EFCF80918F018F702FEF280F2630B8
:101A100080F68093E9002091EB0020FFE2CF933025
:101A200031F48091EB0080628093EB00DACF9091EB
:101A3000EB0090619093EB0021E030E0A90102C03F
:101A4000440F551F8A95E2F74093EA001092EA008E
:101A50008091EB008860E8CF8111ABCF10918D01B0
:101A60001F778091E3008078812B8093E300809141
:101A7000E800877F8093E8000E945C098091E8007D
:101A800080FFFCCF8091E30080688093E30083E0D7
:101A9000111101C082E0809314028BCF80588230F4
:101AA00008F087CF40918D0150918E014C3D83E02D
:101AB000580799F583E08A838AE289834FB7F894BF
:101AC000DE01139620E03EE051E2E32FF0E0509378
:101AD0005700849120FF03C082958F703F5F8F7005
:101AE0008A30C8F0895C90E08D939D932F5F2431FC
:101AF00061F74FBF8091E800877F8093E8006AE23A
:101B000070E0CE0101960E9403098091E8008B7776
:101B10008093E8004ECF805DE6CF20918F01309119
:101B20009001852F99278330910509F160F4813068
:101B3000910509F472C0029709F03BCF8BE390E066
:101B4000EBE6F1E029C08132910509F45AC0829791
:101B500009F02FCF2115310509F469C02130310575
:101B600009F027CF8BE790E0ECEAF0E015C0CA015E
:101B700099274130B1F18230910509F43AC0892B9F
:101B800009F017CFECE0F2E0E4918E2F90E0ECE06A
:101B9000F2E0009709F40DCF2091E800277F209311
:101BA000E80020919101309192018217930708F487
:101BB0009C0140E02115310509F03EC041113CC0B7
:101BC0008091E80082FDA1CF80911402882309F45E
:101BD0009CCF853009F499CF8091E80083FFF0CF46
:101BE00094CFECEEF1E0E4918E2F90E0ECEEF1E09A
:101BF000D0CFE8EBF1E0E4918E2F90E0E8EBF1E05C
:101C0000C8CF2115310571F02130310509F0D1CE51
:101C100089E090E0E6E9F1E0BFCF82E190E0E6EA1A
:101C2000F1E0BACF89E090E0EDE7F1E0B5CF84E4F0
:101C300090E0E7E2F1E0B0CF80911402882309F44C
:101C400064CF853009F461CF8091E80083FD5DCFDA
:101C50008091E80082FDB4CF8091E80080FFAACF98
:101C60009091F3008091F2002115310519F0883030
:101C7000910550F041E0089709F040E08091E800BC
:101C80008E778093E80096CF44914093F10031968F
:101C9000215031090196E8CF803809F08ACE809131
:101CA000E800877F8093E800809189018093F100AC
:101CB00076CE81117ECE10918D01123008F079CE52
:101CC0008091E800877F8093E800109389010E944B
:101CD0005C09112381F084E08093140242E061ECFE
:101CE00081E00E94E40942E261EC82E00E94E409A2
:101CF000809114025ECE8091E30087FDECCF81E0FD
:101D0000EBCF882399F19CEF980F913A40F4682F1C
:101D100082E791E00E9487070E94570B089590E2A6
:101D2000980F983050F4877091E001C0990F8A9510
:101D3000EAF7892F0E947A03EFCF9BE5980F933043
:101D400028F480E090E00E942107089598E5980F1C
:101D50009B3128F480E090E00E944707089593E3C8
:101D6000980F933118F460E00E94CA070895882301
:101D700039F09091AA02892B8093AA020E94570BF6
:101D80000895882321F00E947A030E94570B08953A
:101D9000A0E0B0E0EEECFEE00C9444228901D42FE8
:101DA000C52F6B017C010E945206A8016D2F7C2F6C
:101DB00088E090E00E940B2398014D2F5C2FB60124
:101DC000C70100E20E94BA22622F83E290E00E94E3
:101DD000F922CDB7DEB7E8E00C9460228091A6022C
:101DE000833018F48F5F8093A6022091A202309175
:101DF000A3024091A4025091A5026091A6027091A5
:101E0000A7028091A8029091A9020E94C80E08958D
:101E10008091A602882319F081508093A602209118
:101E2000A2023091A3024091A4025091A5026091B8
:101E3000A6027091A7028091A8029091A9020E9427
:101E4000C80E0895A0E0B0E0E8E2FFE00C943F2265
:101E5000982EC62FD42F722EB090A202B0FE35C09D
:101E60008B2D8C7F8430D9F4E42FF0E0E05FFD4FC0
:101E7000611130C0F491AF2E8F2EB0FE10C0A0EAD9
:101E8000B1E011968C921197FC931296AC92129736
:101E9000139652E0A330B507A1F70E946006909216
:101EA000A302C093A402D093A502772071F02091E1
:101EB000A2026091A6027091A702392DAE01809115
:101EC000A8029091A9020E94C80ECDB7DEB7EDE03E
:101ED0000C945B22292D30E0E62EF12CE491FE2FAC
:101EE00086E0829F6001839FD00C11240FEF10E0E9
:101EF000C601B8010E947122220F331F45E5469F9B
:101F0000C001479F900D1124281B390B822F880F89
:101F1000280FA8014E195F09E49FC001E59F900DAD
:101F20001124A92E2E9DA0012F9D500D1124452F67
:101F30005527D801A41BB50BAD01E49FD001E59F47
:101F4000B00D11248B2EA801421B51099A012E9D20
:101F5000A0012F9D500D3E9D500D1124452F55275A
:101F60009801241B350BA901E49F9001E59F300DDA
:101F7000112463307105C9F04CEFC41643E0D40658
:101F800050F46130710509F478CF6230710589F041
:101F90008F2EF32F72CF6430710571F066307105AA
:101FA000B9F3F92FAB2E8E2E68CFFB2F892EAE2ED4
:101FB00064CF892EA32E61CF832EF92FF8CF2091E5
:101FC000A20220FF1FC0237024602093A202662378
:101FD00081F03091A3024091A4025091A50260913A
:101FE000A6027091A7028091A8029091A9020E9476
:101FF000C80E20E04091A5026091A4028091A30246
:102000000E94220F089561E081E00E94DF0F089591
:102010009091A202969596958FEF890F913009F4D1
:1020200081E061E00E94DF0F0895E2EAF2E0818141
:1020300021E043816281885F0E94220F0895E2EAD5
:10204000F2E0818121E04381628188500E94220F69
:102050000895E2EAF2E0628121E1620F08F46FEF95
:1020600021E0438181810E94220F0895E2EAF2E09B
:10207000628121E1621B08F460E021E043818181FB
:102080000E94220F0895E2EAF2E0438121E1420F2B
:1020900008F44FEF21E0628181810E94220F0895B0
:1020A000E2EAF2E0438121E1421B08F440E021E052
:1020B000628181810E94220F0895A8E0B0E0E3E6EA
:1020C000F0E10C944A2265EE7EEF80E090E00E9401
:1020D000172360E082E090E00E94F92281E090E026
:1020E0009093AE028093AD0261E083E090E00E94A5
:1020F000F92260E074E184E090E00E94172360E040
:1021000086E090E00E94F92260E087E090E00E9483
:10211000F92240E050E0BA0188E090E00E940B23F1
:1021200060E083E290E00E94F92260E08CE090E0C1
:102130000E94F92260E08DE090E00E94F92219826D
:102140001A821B821C821D821E821F82188648E012
:1021500050E067E170E0CE0101960E94E92240E084
:1021600050E0BA018FE190E00E940B2340E050E084
:10217000BA018FE090E00E940B2340E050E0BA01EA
:1021800083E190E00E940B232896E2E00C94662203
:102190008B3258F4853090F0EBEFE80FE63270F4B4
:1021A000F0E0EE59FC4D0C949922833448F48A33C4
:1021B00008F05BC0853331F0883369F080E0089522
:1021C0008334E1F781E090E00E94C7020E94930B04
:1021D00002C00E945D1081E0089580912102807FFD
:1021E0008093210281E080939602F5CF0E94930BA9
:1021F0002FEF44E35CE0215040405040E1F700C045
:1022000000000E94EE0890912102892F8E7F90FF9E
:1022100081608093210280FDDECF817F8093210247
:10222000DACF90912102892F8D7F91FF8260809378
:10223000210281FFD0CF809121028160EFCF909168
:102240002102892F8B7F92FF84608093210282FD7F
:10225000F2CFC1CF90912102892F877F93FF8860B1
:102260008093210283FDE7CFB6CF895321E030E090
:10227000A90102C0440F551F8A95E2F7CA01A4CFF5
:102280008D51F4CFCF93C82F8823E1F18CEF8C0FC1
:10229000813A08F0BFC080919602813001F182300E
:1022A000B1F1811131C08091AA02823229F48C2FC0
:1022B0000E94C810811126C0E4E7F1E08AE791E0AE
:1022C0002191C21709F4DAC08E179F07C9F76C2F46
:1022D00082E791E00E946D070E94570B13C0809126
:1022E000AA02823221F3C43179F040F4CB3051F0AC
:1022F000C03111F782E08093960204C0C93221F008
:10230000C833D1F6CF91089510929602D5CFCF342D
:1023100009F46DC0B0F4C83290F4CE3140F5C73046
:1023200009F449C0C43171F780919502882351F3B3
:10233000109295021092940210929302E3CFC93248
:10234000F2CFC13509F448C091E0C23509F450C05C
:10235000C035C1F6E0919302F0919402309791F26A
:1023600080818A50990B97FF53C01082CBCFCD51FB
:10237000C0939502C430C9F078F488E291E0C2308D
:1023800031F087E291E0C33011F082E992E090935E
:10239000940280939302B6CFC53051F084E291E06D
:1023A000C630A9F310929502ADCF86E291E0EFCF4F
:1023B00085E291E0ECCF1092920284E180932801B3
:1023C000C09327018CE38093260188E08093250148
:1023D00088E28093240196CFE0919302F0919402D9
:1023E000309709F48FCF80818150990BBCCF9AE050
:1023F000E0919302F0919402309709F483CF8081A9
:10240000890F9927991F8F3F910511F00CF08FEFDD
:10241000808378CF80E28C0F883068F4C77021E029
:1024200030E001C0220FCA95EAF78091AA02822B00
:102430008093AA0251CF8BE58C0F833038F42C2F78
:102440002452330BC9010E9421075CCFE8E5EC0F51
:10245000EB3150F4F0E0EE0FFF1FE75CFE4F8081A0
:1024600091810E9447074ECF83E38C0F833108F0A0
:1024700049CF61E08C2F0E94CA0744CF6C2F82E7BE
:1024800091E00E9487070E94570B21CFA6E1B0E0A0
:10249000ECE4F2E10C943F221A821982FE01339699
:1024A0008AE0DF011D928A95E9F789E2A82E81E092
:1024B000B82E8E010F5F1F4F4801EE24E394F12CDC
:1024C00027E3C22E21E0D22EF50181915F018F3FDB
:1024D00009F441C0F894E82FE295EF70F0E021A1F3
:1024E0008F70A70102C0440F551F8A95E2F7CA01F9
:1024F000922F982B91A392A18095892382A37894FF
:1025000000C0EFE2F1E031E0712C21912F3F09F49E
:102510008AC0A22FA295AF70A05EB0E08C9190E02F
:102520002F7002C0959587952A95E2F781708111E9
:102530007AC0832F782A330FCE16DF0631F7F501E4
:10254000319780818F3F11F00E94390650EA5A95E9
:10255000F1F7D8017C920F5F1F4FBFE2AB16B1E0DD
:10256000BB0609F0B1CF4CE050E0B40183E092E04B
:102570000E942D230091100210E00B5E1D4F892B4D
:1025800009F453C08CE0F401A3E0B2E001900D9295
:102590008A95E1F781E0809383010E9496079093EA
:1025A00082018093810180915002882309F495C0B3
:1025B0001E861D86FE013F9684E0DF011D928A95EE
:1025C000E9F7809186018A3008F051C07E01BDE0B4
:1025D000EB0EF11C4FEF53E1B701C8010E94060B4F
:1025E0006701882309F467C048EA53E1B701C801CD
:1025F0000E94060B882309F45EC010928601809128
:102600000F0290E046E050E0B6018B5E9D4F0E94C5
:102610002D2321E020938001892B09F03FC066968D
:10262000EDE00C945B2280E085CF809183018823CC
:1026300009F4B9CF80918101909182010E94DF0855
:10264000059708F4B0CF46E050E063E072E0C801BF
:102650000E942D23892B41F086E0E3E0F2E0D801CF
:1026600001900D928A95E1F7109283019CCF8091A1
:102670007E0190917F010E94DF08843F914008F025
:10268000A5CF80918001882351F2FE013D9686E01E
:10269000DF011D928A95E9F710928001A0910F0247
:1026A000B0E0AB5EBD4F86E0FE013D9601900D921D
:1026B0008A95E1F7B4CF809186018F3F39F40E946B
:1026C000960790937F0180937E01DBCF8F5F80938D
:1026D00086018A3008F493CFF2CF86E0F801ACE3AC
:1026E000B2E001900D928A95E1F78CE392E00E94AE
:1026F000CB0980933B02C0904202D0904302E0900D
:102700004402F090450280917A0190917B01A09162
:102710007C01B0917D01C816D906EA06FB0609F4D2
:102720007ECFC0927A01D0927B01E0927C01F09240
:102730007D010E948F08C61AD70AE80AF90AC092DA
:102740005202D0925302E0925402F092550267CFA7
:10275000A8E0B0E0EEEAF3E10C94492240913302A4
:102760005091340260913502709136022FB7F8947F
:102770008091370290913802A0913902B0913A02CB
:102780002FBF841B950BA60BB70B11E08436910568
:10279000A105B10578F10E94AC08DC01CB010296DD
:1027A000A11DB11D89839A83AB83BC8380911D01D8
:1027B00090911E01855C9D4F20911C01422F50E09D
:1027C000253010F044E050E0BE016F5F7F4F0E9463
:1027D0003A2382E090E00E94C521182F882351F00F
:1027E0000E948F0860933302709334028093350205
:1027F00090933602812F2896E3E00C946522A7E09F
:10280000B0E0E5E0F4E10C944722F62E072F80E0DB
:1028100090E00E94C521182F882309F469C0809197
:102820000F01482F50E0882311F041E050E0609103
:10283000100170911101655C7D4FCE0107960E94D9
:102840003A2340914C0250914D0260914E0270919A
:102850004F022FB7F8948091370290913802A091DF
:102860003902B0913A022FBF841B950BA60BB70B10
:1028700084369105A105B10538F48CE392E00E94FD
:10288000CB099F818917A1F181E090E00E94C521C9
:102890008823C9F180911701482F50E0873010F04C
:1028A00046E050E06091180170911901655C7D4F20
:1028B000CE0101960E943A238CE392E00E94CB095C
:1028C0009F81891320C00E948F0860934C027093EF
:1028D0004D0280934E0290934F0286E0FE013196A6
:1028E000A6E4B2E001900D928A95E1F781E00CC078
:1028F00086E0ECE3F2E0DE01119601900D928A95FC
:10290000E1F71111EACF80E096E0E6E4F2E0AF2DC6
:10291000B02F01900D929A95E1F72796E5E00C947F
:1029200063220F931F93CF93DF93C62FD42F122FC1
:102930008823A9F06093A0020E94960790938501D6
:1029400080938401C77081E001C0880FCA95EAF7BF
:102950000E94B70EDF91CF911F910F910895809142
:10296000A002681338C080918401909185010E9473
:10297000DF08883C910578F5CD130FC0812F0E94A8
:102980004211812F0E94810ED77081E001C0880F13
:10299000DA95EAF70E94C10EDDCFC77001E0802F03
:1029A00001C0880FCA95EAF70E94C10E80E28D0F20
:1029B000883050F48D2F877001C0000F8A95EAF798
:1029C000802F0E94B70EDACF812F0E944211812FF3
:1029D0000E94810EBFCFC77081E001C0880FCA95E9
:1029E000EAF7D8CFA0E0B0E0E8EFF4E10C9444229D
:1029F0008C01FC018481882331F161E0C8010E94CF
:102A0000E205EC01F8018581FE01E851FC47E73061
:102A1000F105A8F5E857FC4D0C94992226E241EE09
:102A200061EE0E9491148091B1028770882359F061
:102A3000F8018581882339F08091B30282FF03C0B9
:102A400082E00E946203CDB7DEB7E8E00C9460221A
:102A500027E245EE65EEE5CF26E241EE60EEE1CFFE
:102A600027E245EE64EEDDCF26E241EE62EED9CFFD
:102A700027E245EE66EED5CF28E241E0EBCF8111AB
:102A80000FC0C631FCE7DF0709F0F9C08091A10251
:102A900069E2811165E382E791E00E948707ECC05B
:102AA0001092A002CE019057839708F0CFC084E027
:102AB00090E00E94E3229093B3028093B202FE0161
:102AC000E150F047E232F10520F4E157FC4D0C945F
:102AD00099228091B20281608093B2026091B20229
:102AE0007091B30284E090E00E9417230E94930B40
:102AF0009ACF8091B30288608093B302EFCF809128
:102B0000B2028260E9CF8091B2028460E5CF809109
:102B1000B2028860E1CF8091B3028160EDCF8091F5
:102B2000B3028260E9CF8091B2028061D5CF8091FB
:102B3000B2028062D1CF8091B2028064CDCF0E9478
:102B4000930B8091B2028068C7CF8091B2028C60F3
:102B5000C3CF8091B3028360CFCF8091B2028E7FCA
:102B6000BBCF8091B302877FC7CF8091B2028D7FA8
:102B7000B3CF8091B2028B7FAFCF8091B202877FBB
:102B8000ABCF8091B3028E7FB7CF8091B3028D7FA0
:102B9000B3CF8091B2028F7E9FCF8091B2028F7DA2
:102BA0009BCF8091B2028F7B97CF0E94930B809135
:102BB000B2028F7791CF8091B202837F8DCF8091C7
:102BC000B3028C7F99CF8091B20282FB992790F952
:102BD00021E0922790FB82F990FB83F97DCF8091D1
:102BE000B302982F909591708E7F892B90FB81F97D
:102BF00083CF9091B202892F8F7B96FF80646CCF38
:102C00000E94930B9091B202892F97FB87F980580D
:102C100063CF61E08EE090E00E94F9225FCF60E038
:102C2000F9CF9091B202892F8F7E94FF806154CFAB
:102C30009091B202892F8E7F90FF81604DCF90914D
:102C4000B302892F877F93FF886056CFC6312CE768
:102C5000D20709F07DC08091AA028A7A91E08111A1
:102C600001C090E09093A10265E3811101C069E287
:102C700082E791E00E946D070E94570BD4CE8091AD
:102C8000AA028272FE01E052F847E531F10508F030
:102C900074C0EF54FC4D0C9499228091A20280FFE5
:102CA00017C0282F2E7F2093A2023091A3024091BB
:102CB000A4025091A5026091A6027091A702809192
:102CC000A8029091A9020E94C80E0E946006ABCE95
:102CD00081608093A20261E0869586950E94DF0F55
:102CE000A2CE48E050E163E070E10E9475069BCE01
:102CF00043E050E168E070E1F8CF4FE150E165E179
:102D000070E1F3CF45E150E16FE170E1EECF46E3D2
:102D100050E169E270E1E9CF49E250E166E370E138
:102D2000E4CF40E550E163E470E1DFCF43E450E1FC
:102D300060E570E1DACF48E05FE06EEE7EE0D5CF8F
:102D40004EEE5EE068E07FE0D0CF61E081E0C6CF8C
:102D5000CA353CE7D30709F485C008F05CC0C13030
:102D60009CE7D90709F47CC0C330ECE7DE0709F41F
:102D700071C0C115DC4709F460C0F8018581E080AD
:102D8000F180882309F472C0C7010E94AE05C82FE4
:102D9000682FC7010E94F302B7018C2F0E948203A3
:102DA0000E949504D82FC92FF801D580C680C294FF
:102DB0002FE0C2228091B1028770882301F1FD2C9F
:102DC000DD20F1F0892F807F803461F080E28D0F6B
:102DD0008830A8F0892F807E803221F4D23078F0BC
:102DE000CC2069F08091B30282FF09C082E00E948A
:102DF00062038091B1028770FF24F3948111F12C5A
:102E0000EC2FE295EF70C03C08F09BC0F0E0EA5375
:102E1000FC4D0C949922CB352CE7D20729F1CC3507
:102E2000DC4709F0AACF8091B30282FB882780F9A2
:102E300091E089270E94400BA0CF0E94930B8FEF57
:102E400094E3ECE081509040E040E1F700C00000E6
:102E50000E94EE086FEF7FEF80E090E00E94172362
:102E60000E94BA0B81E0E6CF80E0E4CFC7010E9468
:102E70002603C82F91CFFC2FFF70EF2EC03118F022
:102E8000E29490EFE922DD20B9F0EE2069F080E2D3
:102E90008D0F883010F0D11109C08091AA028E29BF
:102EA0008093AA020E94570B8D2F43C08091B402D9
:102EB0008E298093B402F6CF8D2F0E94810EEE20D2
:102EC00009F43FC080E28D0F883010F0D11104C0AA
:102ED0008E2D0E947A0306C0E0948091B4028E2168
:102EE0008093B4020E94570B2CC02C2F2F70E22E1F
:102EF000C07FC03219F0E29480EFE822DD2349F070
:102F0000D13009F46BC0DD2009F477C0CC20C9F1C1
:102F1000CBCF8091B30282FD30C0DD2069F0EE207E
:102F200039F08091AA028E298093AA020E94570B41
:102F300080E00E94421105C080E00E94810EE110F5
:102F4000C7CFFF20A9F08091B10280FD11C0F80128
:102F500015828695869586950E94D102C8010E94A9
:102F6000F2148091B1028695869586950E94E102C1
:102F700060E0C8010E94E20566CDDD2099F0C11035
:102F800004C08E2D0E94B70EDCCF31E0C312D9CF22
:102F90008091AB029E2D9823E91699F28E29809399
:102FA000AB02CFCFC110CDCF8E2D0E94C10E90911C
:102FB000AB028E2D8923882329F08E2D80958923BD
:102FC0008093AB028091AC029E2D9823992309F443
:102FD000B8CFE094E822E092AC02B3CFDD2029F034
:102FE00085E08C1508F4ADCFCCCF94E09C1508F4A7
:102FF000A8CF8E2D0E94C10EA4CFCC20D1F3D933FF
:1030000049F4EFEFF7EE23E0E150F0402040E1F724
:1030100000C000008D2F0E94810E93CF8C2F8695CB
:1030200086958370882369F0813009F08ACF8D2FCF
:103030009C2F9370D11002C080E090E00E9447075F
:1030400080CF8D2F9C2F9370D11002C080E090E034
:103050000E94210776CF6D2D8D2F0E94CA0771CF58
:103060008C2F8370811142C0D1102FC04D2F4295FB
:1030700046954770440F440F2D2F2F7030E0042EDB
:1030800002C0220F331F0A94E2F780E090E0D4FFE1
:1030900009C08FE090E002C0880F991F4A95E2F7BF
:1030A00080959095C695C695C370C230B1F0C33077
:1030B00089F04091AD025091AE02C13049F0822BAF
:1030C000932B842395230E94C7020E94100739CFB7
:1030D000242B352B822B932BF6CF822B932B2091F5
:1030E000AD023091AE0282279327EDCFDD2091F122
:1030F000C0FFEBCF4D2F429546954770440F440FCC
:103100002D2F2F7030E0042E02C0220F331F0A949F
:10311000E2F780E090E0D4FF09C08FE090E002C0C9
:10312000880F991F4A95E2F780959095C695C695A8
:10313000C370C230C1F0C33099F04091AF025091DA
:10314000B002C13059F0822B932B842395230E9427
:10315000CC02BBCF823008F4B8CFCCCF242B352B98
:10316000822B932BF4CF822B932B2091AF023091A3
:10317000B00282279327EBCFCF70DD2039F08C2F60
:103180000E94D1028D2F0E94B70E9FCF8D2F0E94DB
:10319000C10E8C2F0E94E10298CFD23FA1F178F4AA
:1031A000D03FC1F0D13F09F447C0DD2009F466C02B
:1031B000CC2009F460C08D2F0E94421186CFD33FEE
:1031C00049F1D43FA9F1D110F3CFC11065C08C2FC4
:1031D0008F71E0CFDD20A1F034E03C1508F475CF0D
:1031E000CF7181E090E0FC0102C0EE0FFF1FCA9595
:1031F000E2F78091AF029091B0028E279F27A7CF70
:10320000F5E0CF16EBCF8C2F8F71D110C3CF0E947A
:10321000D1025BCF80E090E0DD2009F498CFCF7140
:1032200081E090E002C0880F991FCA95E2F78FCF26
:103230009091B30292FD06C08C2F8F71DD2009F4AE
:10324000A9CFE5CFDD2061F08C2F8F7192FFDFCF0A
:1032500098E0899F9001112423602093B102D7CF79
:1032600081E00E946203E1E0EC1508F02ECF82E0DD
:103270000E9462032ACF8C2F8F71C9CFCC2009F412
:10328000A6CFD93349F4FFEF27EE33E0F1502040C9
:103290003040E1F700C000008D2F0E94810E15CF55
:1032A0008091F502803178F48091F402882359F0FE
:1032B000E091B6022091B5023091F0024091EF0208
:1032C00057E02E1301C008956E2F70E05E9FF0014D
:1032D0001124DF01A954BD4F14968C9114978823B3
:1032E00061F111968C911197831327C08C918413EF
:1032F00024C015968C91159781111FC012968D913F
:103300009C91A091F102B091F2028A1B9B0B883C28
:10331000910598F48091F5028F7080618093F50299
:10332000E354FD4F80818F70806180838FEE92E047
:103330000E94F2140E9458030895FB013196E77031
:10334000C0CFADE0B0E0E7EAF9E10C9440228C0197
:1033500086E0F801DE01189601900D928A95E1F75A
:10336000D8019C911596DC9015971296AD90BC9063
:1033700013971496FC9014978FEE882E82E0982E67
:10338000C090F302C11020C0FF20D9F0DD2009F465
:1033900053C1C8010E941106882309F44DC187E07A
:1033A000F801D40101900D928A95E1F7B1E0FB128A
:1033B00006C08091EF029091F0020E9402060E94E6
:1033C0005019FF24F39432C0E090F4022091F102EE
:1033D0003091F202F501E21BF30BEE2009F4FCC080
:1033E000E83CF10508F0DAC0FF2059F33091F00213
:1033F00011962C9111978091F502803108F093C0BD
:10340000FD2C231318C03091EF02391314C0D110D2
:1034100084C08F7080618093F5028FEE92E00E94ED
:10342000F2148091F502F8018683F12C8F2D2D96F0
:10343000ECE00C945C22D11070C0E091B602809157
:10344000B502AE2F37E0A81317C037E08E1337C090
:10345000888599850E940206292F22952F70903425
:1034600008F441C02A5F2F70223008F450C0C80110
:103470000E94F214FE2CDACF4A2F50E03A9FD0017E
:103480001124A954BD4F11966C911197261307C0B2
:103490006C91961304C015966C91611104C0DA0109
:1034A0001196A770D0CF8FEE92E00E94F21487E0C1
:1034B000EFEEF2E0DF011D928A95E9F7B6CF4E2FCD
:1034C00050E03E9FF0011124E954FD4F6181261325
:1034D00006C06081961303C065816111A6CFFA0111
:1034E0003196E770B3CF9F70223038F0992351F0B6
:1034F000F8019681903130F499CF992319F08823FF
:1035000009F494CF805E883008F490CFB0CF803F2C
:1035100008F48CCF815F8230F7CF8091F502816013
:103520008093F50282CF231314C02091EF02291358
:1035300010C0D1100EC016968C93C8010E94F214D0
:1035400087E0F801AFEEB2E001900D928A95E1F7C5
:1035500038CFC8010E941106882309F46DC0DD2010
:1035600009F46AC08091F502803278F02091EF0270
:103570003091F0023A832983BC82AB82CD821E82D5
:103580008F83CE0101960E94F21487E0F801AFEE1E
:10359000B2E001900D928A95E1F711CF8091F5028A
:1035A000803108F480CFFF2009F40BCF3091F00276
:1035B000F80121813213CDCF2091EF022913C9CF19
:1035C000D110C7CF8683C8010E94F21487E0D401CE
:1035D0001D928A95E9F7F5CEE83CF10588F5FF20C4
:1035E00009F4EFCEDD2041F12091F002F801818154
:1035F000281318C08091EF02891314C08091F5023E
:1036000080FD9ECF803108F49BCF8683807F803FF2
:1036100009F493CF8681982F907F905F8F70892BCC
:1036200086838BCFC8010E9411068111AECF809195
:10363000F50281608093F502C8010E94F214C1CEA8
:1036400087E0D40138CFABE1B0E0E9E2FBE10C94D4
:1036500049224E8B5F8B688F798F8A8F9B8F911158
:103660001092B4021D8A86E0FE017696DE011F9656
:1036700001900D928A95E1F78B89882329F061E00A
:10368000CE010F960E94E20587E0FE013F96DE0123
:10369000189601900D928A95E1F7CE0108960E9446
:1036A000A11981112BC087E0FE013896DE01119629
:1036B00001900D928A95E1F72091B5024091B602F2
:1036C0008C858823D9F030E0C9010196877099274D
:1036D00050E084179507E9F097E0929FD001939FFF
:1036E000B00D1124A954BD4FFE01319601900D92E9
:1036F0009A95E1F78093B5020E94580317E08091F4
:10370000B6029091B502891312C06B96E3E00C9457
:1037100065220E94930B1092B5021092B60287E0C8
:10372000EFEEF2E0DF011D928A95E9F7E7CF189FEF
:10373000C001112489549D4F0E94A119882329F3A7
:103740008091B60290E00196877099278093B60227
:10375000D6CFA6E0B0E0EFEAFBE10C9448220E944D
:1037600096078C018091560290915702801791071D
:1037700079F019821A820E949607BC0149815A8108
:1037800080E090E00E94231B1093570200935602A2
:103790002696E4E00C946422CDB7DEB728970FB6E6
:1037A000F894DEBF0FBECDBF85B7806885BF85B7F3
:1037B000806885BF84B7877F84BF0FB6F894A895CB
:1037C00080916000886180936000109260000FBE5D
:1037D00080E890E00FB6F8948093610090936100C8
:1037E0000FBE87E396E090937101809370010E9471
:1037F000AC090E941B0A8091E20084608093E20081
:10380000789480911402882399F08091E9001091B6
:10381000EC001795112717958F70182B1092E9005F
:103820008091E80083FD0E94D00B1F701093E90087
:1038300082E084BD93E095BD9AEF97BD80936E00C2
:10384000109252021092530210925402109255029A
:103850008091D80080618093D8002AE12A95F1F701
:1038600000C08091D90080FF6FC081E0809350023A
:1038700080935102809301010E94D7208091010121
:103880008091010190E0811101C096E090931002B7
:1038900086E0891B80930F0209E211E0D8018D9127
:1038A0008D018F3F11F00E943906B1E00F321B07E6
:1038B000A9F70FE211E0F80181918F018F3F11F01C
:1038C0000E943906F1E007331F07A9F78CE0E5E114
:1038D000F2E0DF01282F1D922A95E9F7E3E0F2E0FC
:1038E000DF011D928A95E9F780E090E00E94E322D3
:1038F000853E9E4F11F00E945D1082E090E00E9494
:10390000D5228093210284E090E00E94E3229093EC
:10391000B3028093B2020E944612EFEFF6E721E075
:10392000E150F0402040E1F700C000000E94461244
:103930008091150280FF13C06FEF7FEF80E090E071
:103940000E9417230E94EE080E94AC0910921402F4
:103950001092500210925102109201018FCF83E019
:1039600090E00E94D52290E00E94C702809111024F
:10397000811196C088E090E00E94DD226B017C01FD
:1039800083E290E00E94D522282F30E040E050E012
:1039900060E070E080E090E000E20E949F22F22F61
:1039A000A32EB42EB52FA62FE72F9701860140E056
:1039B00050E0BA01FC29A12AB22AB32BA42BE52B93
:1039C000862B972BF093A202A092A302B092A4029E
:1039D000B093A502A093A602E093A7028093A80249
:1039E0009093A902F43008F04BC025E02093A20286
:1039F0001092A3022FEF2093A4022093A50210920D
:103A0000A60225E030E04FEF5FEF60E07E2F0E94DE
:103A1000C80E88E090E00E94DD226B017C0183E209
:103A200090E00E94D522282F30E040E050E060E096
:103A300070E080E090E000E20E949F225901B42FE4
:103A4000A52FF62FE72F9701860140E050E0BA013D
:103A5000AC28B12AB22BA32BF42BE52B862B972B6A
:103A6000A092A202B092A302B093A402A093A502D6
:103A7000F093A602E093A7028093A8029093A90274
:103A80000E9452060E947C068091A20280FF05C01F
:103A900060E0869586950E94DF0F81E08093110299
:103AA00080915002811102C00E94DA2082E091E0F0
:103AB000909359028093580266246394CE01019634
:103AC00028E1822E912C30E4532E40E1442E332401
:103AD00033948F8398878091140212E1853009F422
:103AE0007DC00E94461282E2C82E82E0D82E95E167
:103AF000A92E92E0B92ED501F60191918D9122E087
:103B0000EE32F20709F474C09817B9F3209050020E
:103B100010E0D5010D915D01F60171906F017016F5
:103B200039F17026F12CEE24E3948E2D8721882321
:103B3000B9F02220A9F0F9821A830E9496079C838B
:103B40008B833D8291E08E2D8023811101C090E016
:103B50009E8349815A816B817C818D810E94231BC8
:103B6000F394EE0CF8E0FF12E0CFF60131970083FA
:103B70001F5F1C3071F60E94AC083EC08091140299
:103B8000843009F1109212020FB6F894A895809231
:103B900060000FBE5092600083B7817F846083BF56
:103BA00083B7816083BF7894889583B78E7F83BF06
:103BB0000FB6F894A89580916000886180936000AA
:103BC000109260000FBE0E944612E5E1F2E0819182
:103BD00081110CC182E0E132F807C9F7809114022B
:103BE000853009F4CBCF0E94930B0E94100779CF48
:103BF00098138CCF0E94A91B86E0EAE9F2E0AF811E
:103C0000B88501900D928A95E1F7F0909B020091A2
:103C10009C0210919D02D0909E02E0909F02109213
:103C20009C0210929D0210929E0210929F02812F80
:103C3000802B882399F080913002909131020E946C
:103C4000DF089C0180919802882309F44AC04091C2
:103C5000280150E04217530708F451C08E2D8D29DA
:103C6000882371F080912E0290912F020E94DF082C
:103C70009C018091970281117AC0232B09F07DC0AD
:103C800080919B02F81216C080919C02882311F04B
:103C9000801310C090919D02992311F019130AC04E
:103CA00020919F02211106C020919E02211102C085
:103CB000892B81110E94A20786E0EF81F885AAE98D
:103CC000B2E001900D928A95E1F70E941007909161
:103CD0003202891709F4FFCE809332020E948F08C6
:103CE000FACE409192029AE0499FA0011124421716
:103CF000530708F0B3CF8F5F8093980202C08F3FC5
:103D0000D1F7002359F00E948C069FEF10160CF497
:103D100091E0899F802D112480939C02112359F0FA
:103D20000E948C0691E011160CF09FEF899F802D68
:103D3000112480939D0280919C02882309F48ECFE8
:103D4000C0909D02CC2009F489CF0E947E0681118B
:103D500001C081E080939C028C2D0E947E06882306
:103D600019F080939D027ACF60929D0277CF213522
:103D7000310508F485CF8F3F19F08F5F809397024C
:103D8000DD2059F00E94D4069FEF1D140CF491E041
:103D9000899F802D112480939E02EE2059F00E946D
:103DA000D40691E01E140CF09FEF899F802D112402
:103DB00080939F0280919E02882309F461CFE09056
:103DC0009F02EE2009F45CCF0E947E06811101C0A3
:103DD00081E080939E028E2D0E947E06882319F03A
:103DE00080939F024DCF60929F024ACF8091130231
:103DF000882309F4F3CE49BC19BD09B400FEFDCFF8
:103E00008091D8008F7D8093D8008091E0008260FF
:103E10008093E0008091E00081FDFCCF0E94930B35
:103E2000DDCE1F921FB61F9211248F939F93AF93E5
:103E3000BF9380911202811113C08091370290913B
:103E40003802A0913902B0913A024196A11DB11DEC
:103E50008093370290933802A0933902B0933A02CC
:103E6000BF91AF919F918F911F901FBE1F9018958A
:103E700078941F921FB61F9211248F939F93AF9334
:103E8000BF938091370290913802A0913902B0918E
:103E90003A020196A11DB11D80933702909338021A
:103EA000A0933902B0933A02BF91AF919F918F9145
:103EB0001F901FBE1F9018951F920F920FB60F9262
:103EC00011242F933F934F935F936F937F938F931F
:103ED0009F93AF93BF93EF93FF938091E10082FF95
:103EE00009C08091E20082FF05C08091E1008B7FD4
:103EF0008093E1008091DA0080FF24C08091D80097
:103F000080FF20C08091DA008E7F8093DA0080915C
:103F1000D90080FF9BC080E189BD82E189BD09B4E1
:103F200000FEFDCF81E08093140280918A0181110F
:103F300009C00E94AC090E941B0A8091E2008460C3
:103F40008093E2008091E10080FF17C08091E20041
:103F500080FF13C08091E2008E7F8093E200809109
:103F6000E20080618093E2008091D80080628093BB
:103F7000D80019BC85E0809314028091E10084FF91
:103F800029C08091E20084FF25C080E189BD82E1E3
:103F900089BD09B400FEFDCF8091D8008F7D80934C
:103FA000D8008091E1008F7E8093E1008091E20053
:103FB0008F7E8093E2008091E20081608093E20036
:103FC00080918901882309F447C084E0809314021A
:103FD000809114028091E10083FF27C08091E2006C
:103FE00083FF23C08091E100877F8093E10082E01E
:103FF00080931402109289018091E1008E7F80935A
:10400000E1008091E2008E7F8093E2008091E200E7
:1040100080618093E20042E060E080E00E94E40979
:104020008091F00088608093F000FF91EF91BF9144
:10403000AF919F918F917F916F915F914F913F9140
:104040002F910F900FBE0F901F90189519BC1092D2
:10405000140210928A0176CF8091E30087FF02C09C
:1040600083E0B4CF81E0B2CF1F920F920FB60F92D0
:104070001124FF920F931F932F933F934F935F93BE
:104080006F937F938F939F93AF93BF93CF93DF9360
:10409000EF93FF9309EE10E0F8018081C091EC00EE
:1040A000C795CC27C7958F70FC2EF82A1082C0EFD9
:1040B000D0E08881877F888378940E94D00BF801B4
:1040C0001082888188608883CF2DCF70C083FF9154
:1040D000EF91DF91CF91BF91AF919F918F917F91A0
:1040E0006F915F914F913F912F911F910F91FF9091
:1040F0000F900FBE0F901F9018958EE1489B03C044
:1041000081508111FBCF489BFECF0895589880E2E3
:104110008A95F1F7589A0895FC012BE02A95F1F75A
:1041200028E090E080E031E040E14A95F1F7880F27
:10413000489B02C08160932742E04A95F1F7000056
:1041400040E14A95F1F721502111EECF20E12A9567
:10415000F1F729B132E03A95F1F7000040E14A95D4
:10416000F1F7217092272081920F90830895A1E0AA
:10417000B0E0EDEBF0E20C94462219828C017C0158
:10418000E60EF11C0E151F0541F481E09981911195
:1041900080E02196E6E00C9462220E947D20CE0110
:1041A00001960E948C20F80181938F01EBCF509AE9
:1041B000589A08955098589AE89AE9E6F0E0808174
:1041C0008C7F808308956150770B91E001C0990F37
:1041D0006A95EAF7692F90E021E0611108C0992300
:1041E00099F0589A80E28A95F1F758980895362FF9
:1041F0003823332339F0589A922730E23A95F1F771
:104200006695EBCF5898F9CF5898ECCFFF920F9363
:104210001F93CF93DF93EC018C01060F111DC01784
:10422000D10729F4CDB7DEB7E5E00C946322F9900D
:104230000E94862068E08F2D0E94E320F0CF1F921D
:104240000F920FB60F9211240F931F932F933F934A
:104250004F935F936F937F938F939F93AF93BF938E
:10426000EF93FF93CF93DF930F92CDB7DEB7198211
:104270000E947D20CE0101960E948C20082F069579
:1042800006950695982F92959570202F2570920F80
:10429000292F237096959695920F9827977089816C
:1042A000892B81115CC0043008F059C080E18A95E7
:1042B000F1F7589A509A82E08A95F1F700C0589821
:1042C00088E0089F80011124D801A45FBE4F169694
:1042D000ED91FC9117973097A9F06091370170919B
:1042E000380114962D913C911597260F371F119682
:1042F0008D919C911297680F791F13964C9113978B
:104300008C910995F801E45FFE4F6381662351F0BB
:10431000209137013091380184819581820F931F5C
:104320000E9406210E94862080E18A95F1F7589824
:104330005098589A80E18A95F1F7F801E45FFE4FB2
:104340006081662351F020913701309138018181DD
:104350009281820F931F0E94B7200E947D200F90B0
:10436000DF91CF91FF91EF91BF91AF919F918F918D
:104370007F916F915F914F913F912F911F910F917D
:104380000F900FBE0F901F9018950F931F93CF9310
:10439000DF938C0104970CF065C0F894509A5898FC
:1043A00085E08A95F1F70000C02FC695C570802F73
:1043B0008570C80F8C2F8370C695C69593E0000F4B
:1043C000111F9A95E1F7C80FC8018C2BEC010E94D0
:1043D000862000C068E08C2F0E94E32090E19A952F
:1043E000F1F75098589A489B35C087E090E048997B
:1043F00033C0F801E45FFE4F6381662361F02091D2
:1044000037013091380184819581820F931F0E947A
:10441000B720882321F10E947D2080E28A95F1F760
:104420005898509A90E19A95F1F7F801E45FFE4FA1
:104430006081662351F020913701309138018181EC
:104440009281820F931F0E9406210E9486207894F9
:1044500081E009C000C0C7CF0197009749F4509A86
:10446000589A789480E0DF91CF911F910F91089531
:1044700000C0BDCF2F923F924F925F926F927F927A
:104480008F929F92AF92BF92CF92DF92EF92FF9264
:104490000F931F93CF93DF93CDB7DEB7CA1BDB0B10
:1044A0000FB6F894DEBF0FBECDBF09942A883988B5
:1044B00048885F846E847D848C849B84AA84B984BC
:1044C000C884DF80EE80FD800C811B81AA81B981C8
:1044D000CE0FD11D0FB6F894DEBF0FBECDBFED01DC
:1044E0000895AA1BBB1B51E107C0AA1FBB1FA6173B
:1044F000B70710F0A61BB70B881F991F5A95A9F78D
:1045000080959095BC01CD01089597FB072E16F478
:10451000009407D077FD09D00E94712207FC05D0D6
:104520003EF4909581959F4F0895709561957F4FCA
:104530000895EE0FFF1F0590F491E02D0994002ED1
:10454000083090F0982F872F762F652F542F432F08
:10455000322F22270850F4CF220F331F441F551F3C
:10456000661F771F881F991F0A95B2F7002D0895BF
:1045700097FD1094002E083098F00850232F342F08
:10458000452F562F672F782F892F912DF4CF159413
:10459000979587957795679557954795379527957B
:1045A0000A95AAF71124002D0895F999FECF92BD1E
:1045B00081BDF89A992780B50895A6E1B0E044E05E
:1045C00050E00C941F23A8E1B0E042E050E00C94CE
:1045D0001F23DC01A40FB51F4150504048F0CB0110
:1045E000840F951F2E910E94FA2241505040D0F71F
:1045F0000895262FF999FECF92BD81BDF89A0197B3
:1046000000B4021639F01FBA20BD0FB6F894FA9A1A
:10461000F99A0FBE08950396272F0E94FA220E944E
:10462000F922252F0E94FA22242F0C94FA220196B7
:10463000272F0E94FA220C94F922DC01CB01FC0105
:10464000F999FECF06C0F2BDE1BDF89A319600B4EB
:104650000D9241505040B8F70895FB01DC0104C0B1
:104660008D910190801921F441505040C8F7881B6A
:10467000990B0895FB01DC0102C001900D9241509D
:104680005040D8F70895F894FFCFD607DE07E1072A
:10469000E707FC07FC07FC07FC07FC07FC07FC0717
:1046A000FC07EA07EF07F307F9070A0810081408E0
:1046B000AD0CD30CD90CD30CD90C2C0D4E0DD90C40
:1046C0004C0E590EF610ED100311EB10DE10DE103B
:1046D000EB10DE10DE101F11DE102A11DE10DE10CE
:1046E000DE10DE10DE10EB10DE10DE10EB10DE1040
:1046F0001111DE10DE104011401140114011401127
:104700004011401140114011E210DE10F610E91086
:104710002C1530150E152815341538153C15AD150A
:104720001816B5157F158315B9158715BD15C9154B
:10473000931511169715CD159B15D115F9159F15C4
:10474000D5150016A515DB15E3158B15C1158F15AD
:10475000C515A915DF15EF1509160F167915B11531
:104760001F164D16711678167D16821687168C1632
:10477000911696169B16A016A5161315131513154C
:104780001315131513151315131513153B173B1795
:10479000751775170E182B18A117A1173018BC180C
:0447A000CD18CD184B
:1047A4000101FF08E10A0209F80AFF0A00000001FA
:1047B40000000000000000060100000004070000E3
:1047C4000000000028083C0714946697C63435F4AA
:1047D400F5F6F7313332363B02E200E900EA00B580
:1047E40000B600B700CD008301CC008A0192019489
:1047F400012102230224022502260227022A02B3EF
:1048040000B4006F0070009F01CB019F02A0020062
:00000001FF
